:0600000000F0A3EF00F088
:0E000800FFFFFACF31F0FBCF32F08CEF04F0A7
:10001800FFFFD8CF0FF0E8CF10F0E0CF11F0FACF04
:1000280012F0FBCF13F0E9CF14F0EACF15F0E1CFCF
:1000380016F0E2CF17F0D9CF18F0DACF19F0F3CFD6
:100048001AF0F4CF1BF0F6CF1CF0F7CF1DF0F8CF65
:100058001EF0F5CF1FF0F2A003D012EC03F0F290DF
:100068001FC0F5FF1EC0F8FF1DC0F7FF1CC0F6FF3C
:100078001BC0F4FF1AC0F3FF19C0DAFF18C0D9FF7C
:1000880017C0E2FF16C0E1FF15C0EAFF14C0E9FF80
:1000980013C0FBFF12C0FAFF11C0E0FF10C0E8FF59
:1000A8000FC0D8FF1000FFFFFFFFD8CF20F0E8CF28
:1000B80021F0E0CF22F0FACF23F0FBCF24F0E9CFF4
:1000C80025F0EACF26F0E1CF27F0E2CF28F0D9CF0C
:1000D80029F0DACF2AF0F3CF2BF0F4CF2CF0F6CFBB
:1000E8002DF0F7CF2EF0F8CF2FF0F5CF30F0F2A2A9
:1000F80002D08A78F29230C0F5FF2FC0F8FF2EC0E8
:10010800F7FF2DC0F6FF2CC0F4FF2BC0F3FF2AC069
:10011800DAFF29C0D9FF28C0E2FF27C0E1FF26C0C7
:10012800EAFF25C0E9FF24C0FBFF23C0FAFF22C075
:10013800E0FF21C0E8FF20C0D8FF1000FFFFC3EF99
:0201480004F0C1
:10060000000000FFFF01000200010000000200FFE7
:10061000FFFFFF02000000010002000100FFFF00D9
:1006200000800000FFFF81AA03D0016A012A01D0E7
:10063000016A0150096E0A6A81A803D0016A012A81
:1006400001D0016A01500B6E0C6A41C001F042C03A
:1006500002F0D8900136023643500124056E445012
:100660000220066E09C001F00AC002F0D8900136DF
:1006700002360B500124076E0C500220086E05C094
:1006800001F006C002F0D89001360236D89001364B
:1006900002360750012608500222D8900136023651
:1006A000010E0124F66E060E0220F76E0900FFFF10
:1006B000F5CF0DF00A00FFFFF5CF0EF00D50020A46
:1006C0000E10D8A405D047C00DF048C00EF008D0D9
:1006D00009C041F00AC042F00BC043F00CC044F026
:1006E0000D040E10D8A403D0454A462A07D00D2881
:1006F000D8B40E28D8A402D03F4A402A210EF66E64
:100700000900FFFFF5CF01F00900FFFFF5CF02F070
:1007100045C003F046C004F03F5003264050042279
:100720000250041802E101500318D8A424D040500C
:10073000800A016E45503F5C4650800A0158D8B08F
:1007400002D080860ED04650800A016E3F50455C34
:100750004050800A0158D8B003D08096808402D0DF
:10076000809680948092000E466E000E456E000EBC
:10077000406E000E3F6E0DC047F00EC048F01200F4
:10078000FFFFFFFF20EE99F010EE87F0070EDECF9F
:10079000E6FFE82EFCD720EEA0F010EE8EF0060E5D
:1007A000DECFE6FFE82EFCD720EEA6F010EE94F0A8
:1007B000050EDECFE6FFE82EFCD7E0EC04F00001EA
:1007C000000E0001826F0001870E0001816F000E94
:1007D0000001846F010E0001836F38EC04F000010A
:1007E000000E0001826F00018E0E0001816F000E6D
:1007F0000001846F000E0001836F38EC04F00001EB
:10080000000E0001826F0001940E0001816F000E46
:100810000001846F000E0001836F38EC04F081AAA0
:1008200004D00001866B862B02D00001866B00018C
:100830008651416E426A81A804D00001866B862BE6
:1008400002D00001866B00018651436E446A000E9F
:10085000486E000E476E000E406E000E3F6E000E9A
:10086000466E000E456E45EC05F0FDEC04F0FDD73C
:10087000FFFF000183058411D8A429D0FA0E26ECCD
:1008800005F084901CD081C0D9FF82C0DAFFDF5010
:100890000001856F848285C083FF8492FA0E31EC5B
:1008A00005F00001853BF00E8517848285C083FF2B
:1008B0008492FA0E31EC05F00001814B822B81C04D
:1008C000D9FF82C0DAFFDF50D8B424D0DCD78490BF
:1008D0001AD081C0D9FF82C0DAFFDF500001856FD6
:1008E000848285C083FF84920001853BF00E8517CA
:1008F000848285C083FF84920A0E1AEC05F08480FE
:100900000001814B822B81C0D9FF82C0DAFFDF500A
:10091000D8A4DFD71200FFFFFFFFE9CF33F0EACF03
:1009200034F0E1CF35F0E2CF36F0D9CF37F0DACF7F
:1009300038F0F3CF39F0F4CF3AF0F6CF3BF0F7CF01
:100940003CF0F8CF3DF0F5CF3EF03EC0F5FF3DC0A6
:10095000F8FF3CC0F7FF3BC0F6FF3AC0F4FF39C0D8
:10096000F3FF38C0DAFF37C0D9FF36C0E2FF35C029
:10097000E1FF34C0EAFF33C0E9FF32C0FBFF31C002
:10098000FAFF1100FFFF00EE3FF00A0EEE6AE806E4
:10099000FDE1780EF66E0A0EF76E000EF86E00EEB0
:1009A00099F010EE12F00900F5CFEEFFE550E1509E
:1009B000FAE1000EF86E060EF76E0001C1EF03F0CB
:1009C000FFFFE10E926E9388938A939281820F0EBD
:1009D000956E040E966E870EC16E100E806E808628
:1009E000FDEC04F080968084FDEC04F0809480821D
:1009F000FDEC04F080921200FFFFFFFF000E0001EB
:100A0000826F320E0001816F0DD0190E26EC05F0B9
:100A1000FF0E000181250001816FFF0E0001822180
:100A20000001826F000182518111D8B41200FFFFD2
:100A3000ECD7FFFFFFFF0001806F020E00F0E82EF1
:100A4000FDD70001802FF9D71200FFFFFFFF000143
:100A5000806FFA0EE82EFED70001802FFAD7120021
:100A6000FFFFFFFF0001806F190EE82EFED7000187
:100A7000802FFAD71200FFFF333228010C060084C2
:100A800043554E5400C552504D00FFFFD08E000E0E
:0C0A9000F16EC80EF26E1200FFFFFFFFB7
:020000040020DA
:08000000FFFFFFFFFFFFFFFF00
:020000040030CA
:0E000000FF02020EFF0181FF0FC00FE00F4054
:00000001FF
