:0600000000F0F3EF00F038
:0E000800FFFFFACF80F0FBCF81F025EF1CF058
:10001800FFFFD8CF1EF0E8CF1FF0E0CF20F0FACFD7
:1000280021F0FBCF22F0E9CF23F0EACF24F0E1CF93
:1000380025F0E2CF26F0D9CF27F0DACF28F0F3CF9A
:1000480029F0F4CF2AF0F6CF2BF0F7CF2CF0F8CF29
:100058002DF0F5CF2EF0F2A012D081AA02D0010E19
:1000680001D0000E1C6E1D6A46501D1802E1455055
:100078001C18D8B402D0474A482AF29041D0F2A4BA
:100088003FD04F50140A5010D8A431D047C009F0BF
:1000980048C00AF05CEC1CF009C00DF00AC00EF074
:1000A8000BC00FF0970EF66E060EF76E0900FFFFF5
:1000B800F5CF09F00A00FFFFF5CF0AF05CEC1CF061
:1000C80009C010F00AC011F00BC012F03DEC19F095
:1000D8000DC05EF10EC05FF10FC060F1000E486EFA
:1000E800000E476E000E506E000E4F6E02D04F4A43
:1000F800502A0B0E026EDC0E016E91EC1DF0F2948C
:100108002EC0F5FF2DC0F8FF2CC0F7FF2BC0F6FF5F
:100118002AC0F4FF29C0F3FF28C0DAFF27C0D9FF9F
:1001280026C0E2FF25C0E1FF24C0EAFF23C0E9FFA3
:1001380022C0FBFF21C0FAFF20C0E0FF1FC0E8FF7C
:100148001EC0D8FF1000FFFFFFFFD8CF2FF0E8CF69
:1001580030F0E0CF31F0FACF32F0FBCF33F0E9CF17
:1001680034F0EACF35F0E1CF36F0E2CF37F0D9CF2F
:1001780038F0DACF39F0F3CF3AF0F4CF3BF0F6CFDE
:100188003CF0F7CF3DF0F8CF3EF0F5CF3FF0F2A2CC
:1001980002D08A78F2923FC0F5FF3EC0F8FF3DC01A
:1001A800F7FF3CC0F6FF3BC0F4FF3AC0F3FF39C08D
:1001B800DAFF38C0D9FF37C0E2FF36C0E1FF35C0EB
:1001C800EAFF34C0E9FF33C0FBFF32C0FAFF31C099
:1001D800E0FF30C0E8FF2FC0D8FF1000FFFFA2EFFC
:0201E8001CF009
:1006000000010000000A00000064000000E8030090
:100610000010270000A086010040420F008096983D
:100620000000E1F50500CA9A3B00803FCDCC3DD7E4
:10063000233C12833AB7D138C62737388635C0D61F
:1006400033CC2B32708930E7DB2EE53C1E42A20D05
:1006500000803F00204100C842007A44401C4650C0
:10066000C34724744997184BBCBE4C6B6E4E0315A0
:100670005079AD60F349710000FFFF0100020001F5
:100680000000000200FFFFFFFF0200000001000267
:10069000000100FFFF0000F4018000252A2E2A67D8
:1006A0000000FFFF000E0101186F000E0101176F1F
:1006B0000001000E0101136F0001DB0E0101126F3A
:1006C0009BEF0DF001012951250AD8B409D0D7C0FC
:1006D000D9FFD8C0DAFF010129C1DFFF95EF0DF086
:1006E000000E01011A6F000E0101196F000E0101C9
:1006F0001C6F000E01011B6F0001D9C0F6FF000145
:10070000DAC0F7FF0800FFFFF55034EC1DF0D8A069
:100710004AD0000E01011A6F000E0101196F19C1B4
:100720009CF01AC19DF0000E00019F6F0A0E00019F
:100730009E6FDFEC1CF000019CC019F100019DC010
:100740001AF1D00E0001E26FFF0EE36F0001D9C075
:10075000F6FF0001DAC0F7FF0800FFFFF5500001C7
:10076000E46FE56B0001E2510001E4270001E35171
:100770000001E5230001E451010119270001E551C1
:1007800001011A230001D94BDA2B0001D9C0F6FF71
:100790000001DAC0F7FF0800FFFFF55034EC1DF050
:1007A000D8A020D0BCD70001D9C0F6FF0001DAC024
:1007B000F7FF0800FFFFF5502A0AD8A413D012C192
:1007C000D9FF13C1DAFF0101DECF19F10101DDCF3D
:1007D0001AF1020E01011227000E0101132300017C
:1007E000D94BDA2B0001D9C0F6FF0001DAC0F7FFC0
:1007F0000800FFFFF5502E0AD8A461D001011C8D1E
:100800000001D94BDA2B0001D9C0F6FF0001DAC094
:10081000F7FF0800FFFFF5502A0AD8A414D012C130
:10082000D9FF13C1DAFF0101DECF27F10101DDCFCE
:1008300028F1020E01011227000E0101132300010D
:10084000D94BDA2B48D0000E0101286F000E0101B0
:10085000276F27D027C19CF028C19DF0000E000112
:100860009F6F0A0E00019E6FDFEC1CF00001D9C0E3
:10087000F6FF0001DAC0F7FF0800FFFFF5500001A6
:100880009C27000E00019D23D00E00019C25010134
:10089000276FFF0E00019D210101286F0001D94B38
:1008A000DA2B0001D9C0F6FF0001DAC0F7FF08001B
:1008B000FFFFF55034EC1DF0D8A00DD0CBD7000EC3
:1008C0000101286F000E0101276F01011C8903D06F
:1008D00001011C8319D00001D9C0F6FF0001DAC064
:1008E000F7FF0001D94BDA2B0800FFFF0101F5CF1C
:1008F00029F101012951000AD8B4ADEF0DF0670AC2
:10090000D8B4E6D79BEF0DF0070E01011C15D8B443
:10091000CDEF0CF001011CA906D0000E0101286FDB
:10092000060E0101276F12C1D9FF13C1DAFF0101C1
:10093000DECF24F10101DECF25F10101DDCF26F16B
:10094000030E01011227000E01011323010126519C
:10095000800A800F07E1000E0101255D03E1000E12
:100960000101245DD8B011D024C1A6F025C1A7F0A3
:1009700026C1A8F019EC1DF0A6C024F1A7C025F1EE
:10098000A8C026F1030E01011B13000E0101236F05
:10099000000E0101226F7F0E0101261501012511B4
:1009A00001012411D8B4AAD0820E0001E26FFF0E1B
:1009B000E36F010124C1E4F0010125C1E5F001016B
:1009C00026C1E6F0010127C1E7F0100E06D00001B4
:1009D000D890E733E633E533E433E82EF8D7000167
:1009E000E4510001E2250101226F000E0001E32124
:1009F0000101236F01012207D8A0230722C19CF027
:100A000023C19DF0000E00019F6F030E00019E6F39
:100A1000DFEC1CF000019CC022F100019DC023F11D
:100A200022C194F023C195F0000E0001976F0A0EC9
:100A30000001966FCAEC18F0000194C022F1000189
:100A400095C023F101012351800AF36E800EF35CFF
:100A5000000ED8B4225DD8B004D001012207D8A07E
:100A60002307010122510008B9EC0DF0B8C014F1C0
:100A7000B9C015F1BAC016F114C1A9F015C1AAF098
:100A800016C1ABF024C1ACF025C1ADF026C1AEF06B
:100A900013EC15F0A9C014F1AAC015F1ABC016F102
:100AA00014C1CEF015C1CFF016C1D0F0000E000178
:100AB000D16F800E0001D26F3F0E0001D36F16EC94
:100AC0001AF0D8B005D001012207D8A0230716D00C
:100AD00014C1CEF015C1CFF016C1D0F0000E000148
:100AE000D16F200E0001D26F410E0001D36F16ECC2
:100AF0001AF0D8A003D00101224B232B010123516E
:100B0000800AF36E800EF35C010ED8B4225DD8B07B
:100B100004D0010E0101296F02D022C129F1010187
:100B20001CA336D301012351800A810FFC0ED8B4D7
:100B3000225DD8A010D001012351800A0001E26F8C
:100B4000010127510101225D01012851800A0001A4
:100B5000E259D8A01DD3010128512711D8B407D0DC
:100B600001011CA304D001012707D8A02807090E02
:100B70000101275D000E01012859D8A004D0080EFC
:100B80000101296F02D027C129F17F0E010126152D
:100B90000101251101012411D8B40DD124C1BFF0E8
:100BA00025C1C0F026C1C1F0010129510008010191
:100BB0002225B9EC0DF0B8C0C2F0B9C0C3F0BAC07C
:100BC000C4F020EC17F0BFC024F1C0C025F1C1C0B3
:100BD00026F124C1C5F025C1C6F026C1C7F024C145
:100BE0008EF025C18FF026C190F079EC16F08EC002
:100BF0009DF08FC09EF090C09FF091C0A0F0E4ECFB
:100C00001BF09DC0A6F09EC0A7F09FC0A8F019ECF5
:100C10001DF0A6C0C2F0A7C0C3F0A8C0C4F013EC7A
:100C200012F0C2C0CEF0C3C0CFF0C4C0D0F0000EEE
:100C30000001D16F000E0001D26F3F0E0001D36F93
:100C400016EC1AF0D8A017D024C1C2F025C1C3F009
:100C500026C1C4F0000E0001C56F000E0001C66F72
:100C60003F0E0001C76F13EC12F0C2C024F1C3C0E5
:100C700025F1C4C026F1010129C1E2F00001E36BB6
:100C8000E2BFE3070001D890E237E3370001D890D4
:100C9000E237E337040E0001E227000EE323010EE2
:100CA0000001E225F66E060EE321F76E24C18EF0F8
:100CB00025C18FF026C190F079EC16F08EC0E4F0DB
:100CC0008FC0E5F090C0E6F091C0E7F00900FFFFAB
:100CD000F5500001E45D0900FFFFF550E5590900FA
:100CE000FFFFF550E6590900FFFFF550E759D8A07E
:100CF0001BD024C1A9F025C1AAF026C1ABF0CD0EAE
:100D00000001AC6FCC0E0001AD6F3D0E0001AE6F67
:100D100013EC15F0A9C024F1AAC025F1ABC026F14F
:100D20000101224B232B47D001012951040D010E53
:100D3000F324F66E060EF420F76E24C18EF025C162
:100D40008FF026C190F079EC16F08EC0E2F08FC0E3
:100D5000E3F090C0E4F091C0E5F00900FFFFF5502A
:100D60000001E25D0900FFFFF550E3590900FFFFB4
:100D7000F550E4590900FFFFF550E559D8B01BD0F4
:100D800024C1A9F025C1AAF026C1ABF0000E0001D4
:100D9000AC6F200E0001AD6F410E0001AE6F13EC81
:100DA00015F0A9C024F1AAC025F1ABC026F10101BC
:100DB0002207D8A02307050E010127250001E26FB5
:100DC000000E010128210001E36F0001E251010141
:100DD000195F0001E35101011A5B030E01011B15AC
:100DE0000001E26F000E01011C150001E36F00011C
:100DF000E351E211D8B411D00CD0D7C0D9FFD8C07C
:100E0000DAFF200EDF6E0001D74BD82B0101174B04
:100E1000182B01011907D8A01A0701011A51800ADD
:100E2000F36E800EF35C010ED8B4195DD8B0E5D72F
:100E3000030E01011B150001E26F000E01011C15DC
:100E40000001E36F0001E351E211D8B40CD0D7C028
:100E5000D9FFD8C0DAFF2D0EDF6E0001D74BD82B9B
:100E60000101174B182B24C18EF025C18FF026C12C
:100E700090F079EC16F08EC01DF18FC01EF190C07D
:100E80001FF191C020F11DC18EF01EC18FF01FC156
:100E900090F020C191F001012951040D010EF324BD
:100EA000F66E060EF420F76E0900FFFF0001F5CF85
:100EB00092F00900FFFF0001F5CF93F00900FFFF5A
:100EC0000001F5CF94F00A00FFFF0001F5CF95F087
:100ED000AAEC19F08EC0E2F08FC0E3F090C0E4F00D
:100EE00091C0E5F00001E251300FD7C0D9FFD8C062
:100EF000DAFFDF6E0001D74BD82B0101174B182BFF
:100F00001DC18EF01EC18FF01FC190F020C191F065
:100F100001012951040D010EF324F66E060EF42092
:100F2000F76E0900FFFF0001F5CF92F00900FFFF07
:100F30000001F5CF93F00900FFFF0001F5CF94F019
:100F40000A00FFFF0001F5CF95F03CEC1BF08EC0CE
:100F50001DF18FC01EF190C01FF191C020F1010161
:100F600028512711D8B4B6D0D7C0D9FFD8C0DAFFDE
:100F70002E0EDF6E0001D74BD82B0101174B182B1B
:100F8000010129510101275F000E010129BFFF0E58
:100F90000101285B83D001011CA314D00101205161
:100FA0001D111E111F11D8A40DD0000E0101296FB3
:100FB000010129510101276F0101286B010127BFA0
:100FC000280783D01DC18EF01EC18FF01FC190F085
:100FD00020C191F001012951040D010EF324F66E98
:100FE000060EF420F76E0900FFFF0001F5CF92F026
:100FF0000900FFFF0001F5CF93F00900FFFF00019A
:10100000F5CF94F00A00FFFF0001F5CF95F0AAECB0
:1010100019F08EC0E2F08FC0E3F090C0E4F091C010
:10102000E5F00001E251300FD7C0D9FFD8C0DAFF98
:10103000DF6E0001D74BD82B0101174B182B1DC1B8
:101040008EF01EC18FF01FC190F020C191F0010100
:101050002951040D010EF324F66E060EF420F76EEE
:101060000900FFFF0001F5CF92F00900FFFF00012A
:10107000F5CF93F00900FFFF0001F5CF94F00A00CF
:10108000FFFF0001F5CF95F03CEC1BF08EC01DF189
:101090008FC01EF190C01FF191C020F101012907FE
:1010A00001012929D8B411D076D7D7C0D9FFD8C02B
:1010B000DAFF300EDF6E0001D74BD82B0101174B42
:1010C000182B01012707D8A0280701012851271153
:1010D000D8A4EBD7D7C0D9FFD8C0DAFF650EDF6E32
:1010E0000001D74BD82B0101174B182B01012351BD
:1010F000800AF36E800EF35C000ED8B4225DD8B087
:101100000CD00101226D0101231FD8B0232BD7C0C1
:10111000D9FFD8C0DAFF2D0E05D0D7C0D9FFD8C06F
:10112000DAFF2B0EDF6E0001D74BD82B0101174BD6
:10113000182B22C194F023C195F0000E0001976F87
:101140000A0E0001966FCAEC18F000019451300F9E
:10115000D7C0D9FFD8C0DAFFDF6E0001D74BD82B3C
:101160000101174B182B22C18EF023C18FF0000E06
:101170000001916F0A0E0001906F82EC1AF00001DD
:101180008E51300FD7C0D9FFD8C0DAFF94EF0DF0E1
:1011900001011CA320D101012351800AF36E800EAE
:1011A000F35C000ED8B4225DD8B012D0010E01015C
:1011B00022250001E26F000E010123210001E36FEF
:1011C0000001E2510101275F0001E3510101285BA9
:1011D00024C18EF025C18FF026C190F079EC16F075
:1011E0008EC01DF18FC01EF190C01FF191C020F183
:1011F000000E0101296F010129510A0AD8B422D039
:1012000001012951040D010EF324F66E060EF4209F
:10121000F76E0900FFFFF55001011D5D0900FFFF9A
:10122000F55001011E590900FFFFF55001011F593A
:101230000900FFFFF55001012059D8A003D001019A
:10124000292BD9D7010129510101275F000E010186
:1012500029BFFF0E0101285B01012851800AF36EAE
:10126000800EF35C0D0ED8B4275DD8B018D024C121
:10127000C2F025C1C3F026C1C4F00101275187EC9B
:1012800010F0B8C0C5F0B9C0C6F0BAC0C7F013ECD2
:1012900012F0C2C024F1C3C025F1C4C026F101017F
:1012A0002751B9EC0DF0B8C00FF1B9C010F1BAC0B8
:1012B00011F10FC1A9F010C1AAF011C1ABF024C106
:1012C000C5F025C1C6F026C1C7F01DC19DF01EC1E5
:1012D0009EF01FC19FF020C1A0F0E4EC1BF09DC068
:1012E000A6F09EC0A7F09FC0A8F019EC1DF0A6C004
:1012F000C2F0A7C0C3F0A8C0C4F013EC12F0C2C083
:10130000ACF0C3C0ADF0C4C0AEF013EC15F0A9C092
:101310000FF1AAC010F1ABC011F10FC18EF010C1D6
:101320008FF011C190F079EC16F08EC01DF18FC0D6
:101330001EF190C01FF191C020F122D01DC18EF08E
:101340001EC18FF01FC190F020C191F00A0E000164
:10135000926F000E0001936F000E0001946F000E5B
:101360000001956FAAEC19F08EC01DF18FC01EF11F
:1013700090C01FF191C020F101012707D8A02807D4
:10138000010128512711D8B449D01DC18EF01EC1CA
:101390008FF01FC190F020C191F00A0E0001926FF2
:1013A000000E0001936F000E0001946F000E00010B
:1013B000956F3CEC1BF08EC0E2F08FC0E3F090C064
:1013C000E4F091C0E5F00001E551E211E311E41110
:1013D000D8A424D0B3D701012851800AF36E800E1F
:1013E000F35C0D0ED8B4275DD8B018D024C1C2F07C
:1013F00025C1C3F026C1C4F00101275187EC10F0CC
:10140000B8C0C5F0B9C0C6F0BAC0C7F013EC12F04E
:10141000C2C024F1C3C025F1C4C026F1010123518B
:10142000800AF36E800EF35C0A0ED8B4225DD8B049
:1014300029D07F0E0101261501012511010124117A
:10144000D8B46FD024C18EF025C18FF026C190F0A2
:1014500079EC16F08EC0E2F08FC0E3F090C0E4F0BB
:1014600091C0E5F00001E551E211E311E411D8A4C7
:1014700058D001012351800A800F020ED8B4225D9A
:10148000D8A04FD014C1CEF015C1CFF016C1D0F006
:10149000700E0001D16F890E0001D26F400E000165
:1014A000D36F16EC1AF0D8B003D00101F70E02D0BA
:1014B0000101F80E01012227FF0E01012323010182
:1014C0002251B9EC0DF0B8C014F1B9C015F1BAC091
:1014D00016F124C18EF025C18FF026C190F014C101
:1014E00091F015C192F016C193F046EC14F08EC045
:1014F00003F18FC004F190C005F191C006F103C162
:101500001DF104C11EF105C11FF106C120F1000E3D
:101510000101246F000E0101256F000E0101266FED
:1015200034D024C18EF025C18FF026C190F079EC23
:1015300016F08EC01DF18FC01EF190C01FF191C03A
:1015400020F124C1CEF025C1CFF026C1D0F01DC1BD
:101550009DF01EC19EF01FC19FF020C1A0F0E4ECE1
:101560001BF09DC0D1F09EC0D2F09FC0D3F082ECA2
:101570001CF0CEC024F1CFC025F1D0C026F1000E62
:101580000101236F000E0101226F010E0101296F7D
:10159000010129510A0AD8B422D001012951040DB0
:1015A000010EF324F66E060EF420F76E0900FFFF1D
:1015B000F55001011D5D0900FFFFF55001011E59A5
:1015C0000900FFFFF55001011F590900FFFFF55009
:1015D00001012059D8A003D00101292BD9D701013D
:1015E00029C1E2F00001E36BE2BFE30701012751EB
:1015F0000001E227010128510001E32301012251EA
:101600000001E227010123510001E3230001E2511F
:101610000101195F0001E35101011A5B0101285129
:101620002711D8B404D001011907D8A01A07030E56
:1016300001011B150001E26F000E01011C150001E4
:10164000E36F0001E351E211D8B411D00CD0D7C040
:10165000D9FFD8C0DAFF200EDF6E0001D74BD82BA0
:101660000101174B182B01011907D8A01A07010116
:101670001A51800AF36E800EF35C010ED8B4195D26
:10168000D8B0E5D7030E01011B150001E26F000E73
:1016900001011C150001E36F0001E351E211D8B410
:1016A00061D0D7C0D9FFD8C0DAFF2D0E54D01DC1EC
:1016B0008EF01EC18FF01FC190F020C191F001018A
:1016C0002951040D010EF324F66E060EF420F76E78
:1016D0000900FFFF0001F5CF92F00900FFFF0001B4
:1016E000F5CF93F00900FFFF0001F5CF94F00A0059
:1016F000FFFF0001F5CF95F0AAEC19F08EC007F1BD
:101700008FC008F190C009F191C00AF107C18EF0B5
:1017100008C18FF009C190F00AC191F00A0E0001D2
:10172000926F000E0001936F000E0001946F000E87
:101730000001956F3CEC1BF08EC007F18FC008F1E3
:1017400090C009F191C00AF101010751300FD7C0D3
:10175000D9FFD8C0DAFFDF6E0001D74BD82B0101CB
:10176000174B182B0101290701012929D8B411D0E1
:101770009ED7D7C0D9FFD8C0DAFF300EDF6E000188
:10178000D74BD82B0101174B182B01012207D8A0EA
:10179000230701012351800AF36E800EF35C010ED2
:1017A000D8B4225DD8B0E5D701012851800A800F56
:1017B000090ED8B4275DD8A004D0080E0101296F06
:1017C00002D027C129F1010129510101275F000E33
:1017D000010129BFFF0E0101285B01012951D8B485
:1017E0000CD0D7C0D9FFD8C0DAFF2E0EDF6E0001B3
:1017F000D74BD82B0101174B182B01012951B9ECFC
:101800000DF0B8C000F1B9C001F1BAC002F124C1B5
:10181000ACF025C1ADF026C1AEF000C1A9F001C108
:10182000AAF002C1ABF013EC15F0A9C08EF0AAC06B
:101830008FF0ABC090F079EC16F08EC01DF18FC028
:101840001EF190C01FF191C020F18AD01DC18EF011
:101850001EC18FF01FC190F020C191F001012951EC
:10186000040D010EF324F66E060EF420F76E090047
:10187000FFFF0001F5CF92F00900FFFF0001F5CF57
:1018800093F00900FFFF0001F5CF94F00A00FFFF7D
:101890000001F5CF95F0AAEC19F08EC00BF18FC0C6
:1018A0000CF190C00DF191C00EF10BC18EF00CC186
:1018B0008FF00DC190F00EC191F00A0E0001926FF1
:1018C000000E0001936F000E0001946F000E0001E6
:1018D000956F3CEC1BF08EC00BF18FC00CF190C0EB
:1018E0000DF191C00EF101010B51300FD7C0D9FF9E
:1018F000D8C0DAFFDF6E0001D74BD82B0101174BA0
:10190000182B1DC18EF01EC18FF01FC190F020C199
:1019100091F001012951040D010EF324F66E060E1B
:10192000F420F76E0900FFFF0001F5CF92F00900E7
:10193000FFFF0001F5CF93F00900FFFF0001F5CF95
:1019400094F00A00FFFF0001F5CF95F03CEC1BF08E
:101950008EC01DF18FC01EF190C01FF191C020F10B
:101960000101290701012929D8B411D06FD7D7C0A7
:10197000D9FFD8C0DAFF300EDF6E0001D74BD82B6D
:101980000101174B182B01012707D8A028070101D7
:1019900028512711D8B4CFD0EAD7010128512711F7
:1019A000D8A40AD0010120511D111E111F11D8A465
:1019B00003D00101274B282B800E010129BF7F0E88
:1019C0000001E26F010127510101295D0101285148
:1019D000800A0001E259D8B003D027C129F11AD0FA
:1019E00001012851800A0001E26F01012951010122
:1019F000275D800E010129BF7F0E0001E259D8B09A
:101A000009D0010129510101276F0101286B010152
:101A100027BF280701011A511911D8B413D0030E9A
:101A200001011B150001E26F000E01011C150001F0
:101A3000E36F0001E351E211D8B404D001011907AA
:101A4000D8A01A0701011CAD1FD001012851800A3E
:101A50000001E26F010119510101275D01011A51D5
:101A6000800A0001E259D8B009D0010127510101D3
:101A7000195F0101285101011A5B06D0000E010116
:101A80001A6F000E0101196F800E010129BF7F0E30
:101A90000001E26F010119510101295D01011A5193
:101AA000800A0001E259D8B00BD00101295101018F
:101AB000195F000E010129BFFF0E01011A5B06D05C
:101AC000000E01011A6F000E0101196F01011A5178
:101AD0001911D8B415D0D7C0D9FFD8C0DAFF200E5D
:101AE000DF6E0001D74BD82B0101174B182B0101DA
:101AF0001907D8A01A0701011A511911D8A4EBD758
:101B0000030E01011B150001E26F000E01011C15FF
:101B10000001E36F0001E351E211D8B40CD0D7C04B
:101B2000D9FFD8C0DAFF2D0EDF6E0001D74BD82BBE
:101B30000101174B182B0001D9C0F6FF0001DAC0D4
:101B4000F7FF0001D94BDA2B0800FFFF0101F5CFA9
:101B500029F10101296762EF03F0D7C0D9FFD8C08E
:101B6000DAFF000EDF6E17C1D7F018C1D8F01200EF
:101B7000FFFFFFFF0001BE6F0001BEAF60D100019B
:101B8000BE6D0001BE51800A120FD8A0C9D0000E50
:101B900000019F6F030E00019E6F000E0001976F02
:101BA0000A0E0001966F000E0001916F640E000195
:101BB000906F0001BE5100018E6F00018F6B00011C
:101BC0008EBF8F0782EC1AF000018EC094F00001E6
:101BD0008FC095F0CAEC18F0090E000194250001A1
:101BE0009C6F000E0001952100019D6FDFEC1CF041
:101BF000290E00019C25F66E060E00019D21F76E50
:101C00000900FFFF0001F5CFACF00900FFFF000164
:101C1000F5CFADF00A00FFFF0001F5CFAEF0000EEA
:101C20000001976F640E0001966F0001BE51000124
:101C3000946F0001956B000194BF9507CAEC18F0F2
:101C4000120E0001942500019C6F000E00019521E9
:101C500000019D6F000E00019F6F030E00019E6F3B
:101C6000DFEC1CF0290E00019C25F66E060E00012B
:101C70009D21F76E0900FFFF0001F5CFA9F00900D3
:101C8000FFFF0001F5CFAAF00A00FFFF0001F5CF2A
:101C9000ABF013EC15F0A9C0BBF0AAC0BCF0ABC010
:101CA000BDF0BBC0A9F0BCC0AAF0BDC0ABF0000E37
:101CB00000019F6F030E00019E6F000E0001916FE7
:101CC0000A0E0001906F0001BE5100018E6F0001ED
:101CD0008F6B00018EBF8F0782EC1AF000018EC05F
:101CE0009CF000018FC09DF0DFEC1CF0290E00017C
:101CF0009C25F66E060E00019D21F76E0900FFFF80
:101D00000001F5CFACF00900FFFF0001F5CFADF009
:101D10000A00FFFF0001F5CFAEF013EC15F0D6D1AD
:101D20000001BE51800A750FD8A073D0000E0001CB
:101D3000976F0A0E0001966F0001BE510001946F6B
:101D40000001956B000194BF9507CAEC18F0090ECD
:101D50000001942500019C6F000E000195210001F7
:101D60009D6F000E00019F6F030E00019E6FDFEC60
:101D70001CF0290E00019C25F66E060E00019D2127
:101D8000F76E0900FFFF0001F5CFA9F00900FFFF82
:101D90000001F5CFAAF00A00FFFF0001F5CFABF07C
:101DA000000E00019F6F030E00019E6F000E0001E8
:101DB000916F0A0E0001906F0001BE5100018E6FFD
:101DC00000018F6B00018EBF8F0782EC1AF00001BB
:101DD0008EC09CF000018FC09DF0DFEC1CF0290E3E
:101DE00000019C25F66E060E00019D21F76E09008C
:101DF000FFFF0001F5CFACF00900FFFF0001F5CFB8
:101E0000ADF00A00FFFF0001F5CFAEF013EC15F0C6
:101E10005DD10001BE51030D290EF324F66E060EAE
:101E2000F420F76E0900FFFF0001F5CFB8F00900BC
:101E3000FFFF0001F5CFB9F00A00FFFF63D10001F9
:101E4000BE51800A120FD8A0C9D0000E00019F6FAA
:101E5000030E00019E6F000E0001976F0A0E000135
:101E6000966F000E0001916F640E0001906F0001EB
:101E7000BE5100018E6F00018F6B00018EBF8F0776
:101E800082EC1AF000018EC094F000018FC095F032
:101E9000CAEC18F0090E0001942500019C6F000E99
:101EA0000001952100019D6FDFEC1CF0500E000138
:101EB0009C25F66E060E00019D21F76E0900FFFFBE
:101EC0000001F5CFACF00900FFFF0001F5CFADF048
:101ED0000A00FFFF0001F5CFAEF0000E0001976F82
:101EE000640E0001966F0001BE510001946F000165
:101EF000956B000194BF9507CAEC18F0120E000113
:101F0000942500019C6F000E0001952100019D6F3A
:101F1000000E00019F6F030E00019E6FDFEC1CF0AE
:101F2000500E00019C25F66E060E00019D21F76EF5
:101F30000900FFFF0001F5CFA9F00900FFFF000134
:101F4000F5CFAAF00A00FFFF0001F5CFABF013ECCC
:101F500015F0A9C0BBF0AAC0BCF0ABC0BDF0BBC0BF
:101F6000A9F0BCC0AAF0BDC0ABF0000E00019F6F8D
:101F7000030E00019E6F000E0001916F0A0E00011A
:101F8000906F0001BE5100018E6F00018F6B000148
:101F90008EBF8F0782EC1AF000018EC09CF000010A
:101FA0008FC09DF0DFEC1CF0500E00019C25F66EFA
:101FB000060E00019D21F76E0900FFFF0001F5CF1D
:101FC000ACF00900FFFF0001F5CFADF00A00FFFF04
:101FD0000001F5CFAEF013EC15F078D00001BE5142
:101FE000800A750FD8A079D0000E0001976F0A0EF5
:101FF0000001966F0001BE510001946F0001956BC6
:10200000000194BF9507CAEC18F0090E0001942551
:1020100000019C6F000E0001952100019D6F000ED4
:1020200000019F6F030E00019E6FDFEC1CF0500E4D
:1020300000019C25F66E060E00019D21F76E090039
:10204000FFFF0001F5CFA9F00900FFFF0001F5CF68
:10205000AAF00A00FFFF0001F5CFABF0000E00016F
:102060009F6F030E00019E6F000E0001916F0A0E1C
:102070000001906F0001BE5100018E6F00018F6B57
:1020800000018EBF8F0782EC1AF000018EC09CF019
:1020900000018FC09DF0DFEC1CF0500E00019C256C
:1020A000F66E060E00019D21F76E0900FFFF00018C
:1020B000F5CFACF00900FFFF0001F5CFADF00A004D
:1020C000FFFF0001F5CFAEF013EC15F0A9C0B8F09A
:1020D000AAC0B9F0ABC0BAF018D00001BE51030DD0
:1020E000500EF324F66E060EF420F76E0900FFFF83
:1020F0000001F5CFB8F00900FFFF0001F5CFB9F0FE
:102100000A00FFFF0001F5CFBAF01200FFFFFFFF4A
:102110000001C16F6D0E0001C165D4D0000E000139
:102120009F6F030E00019E6F000E0001976F0A0E55
:102130000001966F000E0001916F640E0001906F18
:102140000001C1C08EF000018F6B82EC1AF000011B
:102150008EC094F000018FC095F0CAEC18F0090E03
:102160000001942500019C6F000E000195210001E3
:102170009D6FDFEC1CF0290E00019C25F66E060E0B
:1021800000019D21F76E0900FFFF0001F5CFACF0C3
:102190000900FFFF0001F5CFADF00A00FFFF0001CD
:1021A000F5CFAEF0000E0001976F640E0001966F40
:1021B0000001C1C094F00001956BCAEC18F0120E3A
:1021C0000001942500019C6F000E00019521000183
:1021D0009D6F000E00019F6F030E00019E6FDFECEC
:1021E0001CF0290E00019C25F66E060E00019D21B3
:1021F000F76E0900FFFF0001F5CFA9F00900FFFF0E
:102200000001F5CFAAF00A00FFFF0001F5CFABF007
:1022100013EC15F0A9C0BEF0AAC0BFF0ABC0C0F06F
:10222000000E00019F6F030E00019E6F000E000163
:10223000916F0A0E0001906F0001C1C08EF0000185
:102240008F6B82EC1AF000018EC09CF000018FC0F1
:102250009DF0DFEC1CF0290E00019C25F66E060EA9
:1022600000019D21F76E0900FFFF0001F5CFACF0E2
:102270000900FFFF0001F5CFADF00A00FFFF0001EC
:10228000F5CFAEF0BEC0A9F0BFC0AAF0C0C0ABF0A1
:1022900013EC15F0A9C0BBF0AAC0BCF0ABC0BDF0F8
:1022A000BBC0A9F0BCC0AAF0BDC0ABF0000E0001DD
:1022B000AC6F000E0001AD6F3F0E0001AE6F13EC6E
:1022C00015F0A9D00A0E0001C16582D0000E0001F0
:1022D0009F6F030E00019E6F000E0001916F0A0EAA
:1022E0000001906F0001C1C08EF000018F6B82EC85
:1022F0001AF000018EC09CF000018FC09DF0DFEC51
:102300001CF0290E00019C25F66E060E00019D2191
:10231000F76E0900FFFF0001F5CFACF00900FFFFE9
:102320000001F5CFADF00A00FFFF0001F5CFAEF0E0
:10233000000E0001976F0A0E0001966F0001C1C0E8
:1023400094F00001956BCAEC18F0090E0001942579
:1023500000019C6F000E0001952100019D6F000E91
:1023600000019F6F030E00019E6FDFEC1CF0290E31
:1023700000019C25F66E060E00019D21F76E0900F6
:10238000FFFF0001F5CFA9F00900FFFF0001F5CF25
:10239000AAF00A00FFFF0001F5CFABF013EC15F037
:1023A000A9C0BEF0AAC0BFF0ABC0C0F0BEC0A9F0CB
:1023B000BFC0AAF0C0C0ABF0000E0001AC6F000EB1
:1023C0000001AD6F3F0E0001AE6F13EC15F023D08E
:1023D0000001C151030D290EF324F66E060EF42000
:1023E000F76E0900FFFF0001F5CFA9F00900FFFF1C
:1023F0000001F5CFAAF00A00FFFF0001F5CFABF016
:10240000000E0001AC6F000E0001AD6F3F0E000129
:10241000AE6F13EC15F0A9C0B8F0AAC0B9F0ABC00C
:10242000BAF01200FFFFFFFF0001C4C0C8F00001B6
:10243000C96BCA6B0001C3350001C83701E3C9810C
:102440000001C8510001CD6F0001C7C0C8F00001F4
:10245000C96BCA6B0001C6350001C83701E3C981E9
:102460000001C8510001CC6F0001CD51D8B412D089
:102470000001CC510001CD5DD8B013D00001CD5189
:1024800000080001CC250001C86F190E0001C85DCD
:10249000D8A007D0C5C0C2F0C6C0C3F0C7C0C4F042
:1024A00002D10001CC51D8B412D00001CD510001AD
:1024B000CC5DD8B013D00001CC5100080001CD256F
:1024C0000001C86F190E0001C85DD8A007D0C2C0B6
:1024D000C2F0C3C0C3F0C4C0C4F0E5D0060E000112
:1024E000CB6F0001C4AF02D00001CB8F0001C7AF9A
:1024F00002D00001CB8D0001C38FFF0E0001C21777
:10250000FF0E0001C317000E0001C4170001C68FA3
:10251000FF0E0001C517FF0E0001C617000E0001D7
:10252000C7170001CC510001CD5DD8B02AD0000101
:10253000D8900001C5370001C6370001C737000138
:10254000CC070001CC510001CD19D8B414D0000142
:10255000CB07CBC0C8F0070E0001C817D8B40BD00A
:10256000E6D70001D8900001C4330001C333000155
:10257000C2330001CD2B0001CC510001CD63F1D756
:102580002FD00001CD510001CC5DD8B029D0000181
:10259000D8900001C2370001C3370001C4370001E1
:1025A000CD070001CC510001CD19D8B414D00001E1
:1025B000CB07CBC0C8F0070E0001C817D8B40BD0AA
:1025C000E6D70001D8900001C7330001C6330001EF
:1025D000C5330001CC2B0001CC510001CD63F1D7F4
:1025E0000001CBAF12D0FF0E0001C21BFF0E000195
:1025F000C31BFF0E0001C41B010E0001C227000E09
:102600000001C323000E0001C4230001CBAD12D092
:10261000FF0E0001C51BFF0E0001C61BFF0E0001CF
:10262000C71B010E0001C527000E0001C623000EC6
:102630000001C723000E0001CB6F0001C251000151
:10264000C5270001C3510001C6230001C451000188
:10265000C7230001C7AF15D0FF0E0001C51BFF0E39
:102660000001C61BFF0E0001C71B010E0001C5279C
:10267000000E0001C623000E0001C723010E000159
:10268000CB6FC5C08EF0C6C08FF0C7C090F0CDC074
:1026900091F0CBC092F0C5EC17F08EC0C2F08FC0A5
:1026A000C3F090C0C4F01200FFFFFFFF00018EC016
:1026B00094F000018FC095F0000190C096F00001E9
:1026C00091C097F0180E06D00001D890973396333A
:1026D00095339433E82EF8D70001945100019D6F93
:1026E00000019D6701D0ACD0000191C094F00001C1
:1026F00092C095F0000193C096F0000194C097F04D
:10270000180E06D00001D890973396339533943342
:10271000E82EF8D70001945100019C6F00019C67DE
:1027200001D08ED00001908FFF0E00018E17FF0E9A
:1027300000018F17FF0E00019017000E0001911786
:102740000001938FFF0E00019117FF0E00019217F9
:10275000FF0E00019317000E00019417000E0001F8
:10276000986F000E0001996F000E00019A6F000E25
:1027700000019B6F7F0E00019D5F00019C51A00F27
:1027800000019D5F200E00019C6F0001D8900001A8
:1027900098370001993700019A3700019B370001F3
:1027A000915100018E5D0001925100018F5900018D
:1027B0009351000190590001945100019159D8A002
:1027C00012D00001915100018E5F00019251000171
:1027D0008F5B000193510001905B00019451000157
:1027E000915B000198810001D89000018E370001B3
:1027F0008F37000190370001913700019C2FC5D71A
:1028000000019DAF19D000019D51800A0001946F15
:10281000E10E800A0001945DD8A012D00001D8908A
:1028200000019B3300019A33000199330001983372
:1028300000019D3FF3D720D01F0E00019D6519D0E8
:10284000000E00018E6F000E00018F6F000E000160
:10285000906F000E0001916F17D00001D890000119
:1028600098370001993700019A3700019B37000122
:102870009D0700019D67F1D798C08EF099C08FF039
:102880009AC090F09BC091F01200FFFFFFFF000183
:1028900090C094F00001956B966B00018F3500019C
:1028A000943701E395810001945100019C6F000170
:1028B0009C6701D092D0000193C094F00001956B09
:1028C000966B000192350001943701E39581000178
:1028D000945100019B6F00019B6701D07ED00001E5
:1028E0008F8FFF0E00018E17FF0E00018F17000E55
:1028F000000190170001928FFF0E00019117FF0E4B
:1029000000019217000E00019317000E0001976F4F
:10291000000E0001986F000E0001996F000E00017B
:102920009A6F7F0E00019C5F00019B51980F000180
:102930009C5F180E00019B6F0001D8900001973733
:10294000000198370001993700019A370001915131
:1029500000018E5D0001925100018F5900019351D9
:1029600000019059D8A00ED00001915100018E5F56
:102970000001925100018F5B000193510001905BB7
:10298000000197810001D89000018E3700018F3738
:102990000001903700019B2FCFD700019CAF19D0C9
:1029A00000019C51800A0001946FE90E800A000129
:1029B000945DD8A012D00001D89000019A33000194
:1029C0009933000198330001973300019C3FF3D7FE
:1029D00020D0170E00019C6519D0000E00018E6FEB
:1029E000000E00018F6F000E0001906F000E0001BD
:1029F000916F17D00001D8900001973700019837E8
:102A00000001993700019A3700019C0700019C677B
:102A1000F1D797C08EF098C08FF099C090F09AC00F
:102A200091F01200FFFFFFFF0001ABC0AFF000010B
:102A3000B06BB16B0001AA350001AF3701E3B08183
:102A40000001AF510001B26F0001B26701D013D095
:102A50000001AEC0AFF00001B06BB16B0001AD354D
:102A60000001AF3701E3B0810001AF510001B76F42
:102A70000001B7670AD0000E0001A96F000E000127
:102A8000AA6F000E0001AB6F80D00001B7517B0F21
:102A90000001B227ABC0B7F00001AE510001B71B77
:102AA000800E0001B7170001AA8F0001AD8FFF0E45
:102AB0000001AC17FF0E0001AD17000E0001AE17AC
:102AC000000E0001B36F000E0001B46F000E000194
:102AD000B56F070E0001B66F0001A9A10CD000016F
:102AE000AC510001B3270001AD510001B423000136
:102AF000AE510001B5230001D8900001AB330001B5
:102B0000AA330001A9330001D8900001AC370001BD
:102B1000AD370001AE370001B62FDED7090E000138
:102B2000B66F0001A9A10CD00001AC510001B32780
:102B30000001AD510001B4230001AE510001B523E5
:102B40000001D8900001AB330001AA330001A93382
:102B50000001D8900001B5330001B4330001B33354
:102B60000001B62FDED7B3C08EF0B4C08FF0B5C071
:102B700090F0B2C091F0B7C092F0C5EC17F08EC0E3
:102B8000A9F08FC0AAF090C0ABF01200FFFFFFFFCA
:102B900021EE4CF011EE30F0070EDECFE6FFE82E0E
:102BA000FCD721EE53F011EE37F0060EDECFE6FF34
:102BB000E82EFCD721EE59F011EE3DF0050EDECFE8
:102BC000E6FFE82EFCD7C1EC1CF00101010E00016C
:102BD000906F0101300E00018F6F000E0001926FA7
:102BE000010E0001916F90EC1BF00101010E00013C
:102BF000906F0101370E00018F6F000E0001926F80
:102C0000000E0001916F90EC1BF00101010E00011C
:102C1000906F01013D0E00018F6F000E0001926F59
:102C2000000E0001916F90EC1BF081AA04D000010E
:102C3000F16BF12B02D00001F16B0001F151456EF7
:102C4000466A81A804D00001F16BF12B02D000018B
:102C5000F16B0001F151496E4A6A000E4E6E000E92
:102C60004D6E000E446E000E436E000E4C6E000E54
:102C70004B6E000E01015E6F000E01015F6F000ED2
:102C80000101606F000E486E000E476E9B0ECB6E0A
:102C9000BD9ABD98040EBE6E000E506E000E4F6EB3
:102CA0000B0E00018F6FDC0E00018E6F70EC1DF0BB
:102CB0004CEC1DF0FCEC1CF0000E0001E96FC00EA6
:102CC0000001E86F000E0001EB6F050E0001EA6FD6
:102CD0005EC1ECF05FC1EDF060C1EEF00101010EEC
:102CE0000001F06F0101420E0001EF6F4CEC18F093
:102CF000E1D7FFFF000190C092F00001936B946B4D
:102D000000018F350001923701E393810001925158
:102D100000019C6F00019C6701D059D0170E000183
:102D2000926F00018EC093F000018FC094F00001FB
:102D300090C095F0000192290001966F05D0000126
:102D4000D8909533943393330001962FF8D7000130
:102D500093510001976F00018F8FFF0E00018E17B6
:102D6000FF0E00018F17000E0001901700018E5119
:102D70000001986F00018F510001996F000190517F
:102D800000019A6F00019B6B8E0E00019C5F000199
:102D90009CAF19D000019C51800A0001926FF10E86
:102DA000800A0001925DD8A012D00001D8900001E5
:102DB0009B3300019A3300019933000198330001DD
:102DC0009C3FF3D720D0170E00019C6519D0000E50
:102DD00000018E6F000E00018F6F000E0001906FDA
:102DE000000E0001916F2AD00001D89000019837A1
:102DF0000001993700019A3700019B3700019C07B9
:102E000000019C67F1D700019751D8B40FD00001A1
:102E10009B1F00019A1F0001991F0001986D000E71
:102E20000001992300019A2300019B2398C08EF092
:102E300099C08FF09AC090F09BC091F01200FFFFF4
:102E4000FFFF0001C1C0C5F00001C66BC76B0001E8
:102E5000C0350001C53701E3C6810001C55100013D
:102E6000CC6F0001CC6701D013D00001C4C0C5F005
:102E70000001C66BC76B0001C3350001C53701E314
:102E8000C6810001C5510001CD6F0001CD670AD098
:102E9000000E0001BF6F000E0001C06F000E0001A8
:102EA000C16F71D0000E0001C96F000E0001CA6F22
:102EB000000E0001CB6F0001CD51890F0001CC5FE6
:102EC000C1C0CDF00001C4510001CD1B800E000136
:102ED000CD170001C08FFF0E0001BF17FF0E0001CC
:102EE000C017000E0001C1170001C38FFF0E0001C3
:102EF000C217FF0E0001C317000E0001C417180E01
:102F00000001C86F0001D8900001C9370001CA371D
:102F10000001CB370001C2510001BF5D0001C35168
:102F20000001C0590001C4510001C159D8A00ED000
:102F30000001C2510001BF5F0001C3510001C05B2D
:102F40000001C4510001C15B0001C9810001D8909A
:102F50000001BF370001C0370001C1370001C82F91
:102F6000D1D7C9C08EF0CAC08FF0CBC090F0CCC012
:102F700091F0CDC092F0C5EC17F08EC0BFF08FC0BD
:102F8000C0F090C0C1F01200FFFFFFFF000191519F
:102F9000D8B408D000018E5100018F1100019011AA
:102FA000D8A414D0000E00018E6F000E00018F6FA8
:102FB000000E0001906F6ED00001912B0001D8909F
:102FC0000001903300018F3300018E33000E0001A9
:102FD0008E150001936F000E00018F150001946F94
:102FE000FE0E000190150001956F000193519411A0
:102FF0009511D8B414D0E0D70001912B010E000137
:103000008E27000E00018F23000E00019023000187
:10301000D8900001903300018F3300018E33000EF1
:1030200000018E150001936F000E00018F15000145
:10303000946FFF0E000190150001956F00019351F0
:1030400094119511D8B40BD0D7D700019107000186
:10305000D89000018E3700018F37000190370001B2
:103060008FAFF3D7000191B102D000018F9F000113
:10307000D8909133000191510001901300019251B9
:10308000D8B402D00001908F8EC08EF08FC08FF028
:1030900090C090F01200FFFFFFFF00010101F0C09F
:1030A0002DF100010101EFC02CF1010E01012C25D1
:1030B0000001D76F000E01012D210001D86F060E0F
:1030C0000001DA6F9B0E0001D96FEAC0DBF0EBC0A4
:1030D000DCF0FF0E0001EA250001DD6FFF0E0001AC
:1030E000EB210001DE6FECC0DFF0EDC0E0F0EEC0E0
:1030F000E1F051EC03F00001D7C02EF10001D8C07F
:103100002FF1EFC0D9FFF0C0DAFF0001E8C0DFFF08
:103110000001EB51800A01012A6F01012E510001CB
:10312000EA5D01012F51800A01012A59D8B022D04D
:103130000001EA510001EF25D96E0001EB510001B9
:10314000F021DA6E210EDF6E010E0001EA25010189
:103150002A6F000E0001EB2101012B6F01012A51A2
:103160000001EF25D96E01012B510001F021DA6E2B
:10317000000EDF6E0001F0C090F00001EFC08FF094
:10318000000E0001926F000E0001916F90EC1BF099
:103190001200FFFFFFFF000E0001996F0001975121
:1031A000800AF36E800EF35C000ED8B4965DD8B042
:1031B00009D00001966D0001971FD8B0972B010E22
:1031C0000001996F00019551800AF36E800EF35C47
:1031D000000ED8B4945DD8B009D00001946D000100
:1031E000951FD8B0952B010E0001991B000E000110
:1031F0009B6F000E00019A6F000197519611D8B491
:103200002CD0010E0001986F06D00001D89096379F
:1032100097370001982B000197AFF7D70001D8909E
:103220009A379B37000196510001945D0001975138
:1032300000019559D8A00AD0000196510001945F71
:10324000000197510001955B00019A810001D8901F
:10325000973396330001982FE1D700019951D8B4E4
:1032600006D000019A6D00019B1FD8B09B2B9AC01D
:1032700094F09BC095F01200FFFFFFFF0FC013F00A
:10328000146A156A0E34133601E3148013501A6E53
:103290001A6601D00CD012C013F0146A156A1134EA
:1032A000133601E3148013501B6E1B6607D0000E0B
:1032B0000D6E000E0E6E000E0F6E4AD0000E176ED1
:1032C000000E186E000E196E1B50890F1A5E0FC08B
:1032D0001BF012501B1A800E1B160E8EFF0E0D16C1
:1032E000FF0E0E16000E0F16118EFF0E1016FF0E9B
:1032F0001116000E1216180E166ED89017361836C4
:10330000193610500D5C11500E5812500F58D8A09D
:1033100007D010500D5E11500E5A12500F5A1780E0
:10332000D8900D360E360F36162EE7D717C001F09F
:1033300018C002F019C003F01AC004F01BC005F059
:10334000E6EC1AF001C00DF002C00EF003C00FF061
:103350001200FFFFFFFF000E0001966F000E00013C
:10336000976F000E0001986F000E0001996F000129
:103370009551921193119411D8B44ED0010E0001C1
:103380009A6F0CD00001D89000019237000193375A
:10339000000194370001953700019A2B000195AF89
:1033A000F1D70001D890000196370001973700014E
:1033B0009837000199370001925100018E5D00019C
:1033C000935100018F59000194510001905900015F
:1033D000955100019159D8A012D0000192510001DD
:1033E0008E5F0001935100018F5B00019451000139
:1033F000905B000195510001915B000196810001F5
:10340000D8900001953300019433000193330001FB
:10341000923300019A2FC5D796C08EF097C08FF0D7
:1034200098C090F099C091F01200FFFFFFFF0001DB
:10343000D0AF20D00001CEC0D4F00001CFC0D5F075
:103440000001D0C0D6F00001D41FD51FD61FD42B49
:10345000000ED523D623000E0001D4250001CE6F27
:10346000000E0001D5210001CF6F800E0001D62192
:103470000001D06F0001D3AF20D00001D1C0D4F043
:103480000001D2C0D5F00001D3C0D6F00001D41F96
:10349000D51FD61FD42B000ED523D623000E000136
:1034A000D4250001D16F000E0001D5210001D26F9B
:1034B000800E0001D6210001D36F000E0001CE1B4B
:1034C000000E0001CF1B800E0001D01B000E00017A
:1034D000D11B000E0001D21B800E0001D31B000186
:1034E000D1510001CE5D0001D2510001CF59000140
:1034F000D3510001D059D8B002D0D89001D0D88093
:103500001200FFFFFFFF000E0001936F00018F51BB
:10351000800AF36E800EF35C000ED8B48E5DD8B0D6
:1035200009D000018E6D00018F1FD8B08F2B010EC6
:103530000001936F00019151800AF36E800EF35CDD
:10354000000ED8B4905DD8B006D00001906D000197
:10355000911FD8B0912B000191519011D8B426D071
:10356000010E0001926F06D00001D890903791377C
:103570000001922B000191AFF7D70001905100019B
:103580008E5D0001915100018F59D8A008D0000133
:10359000905100018E5F0001915100018F5B00018D
:1035A000D890913390330001922FE7D700019351C7
:1035B000D8B406D000018E6D00018F1FD8B08F2BBC
:1035C0008EC08EF08FC08FF01200FFFFFFFF0450FF
:1035D000D8B405D0015002100310D8A40CD0000EAE
:1035E000016E000E026E000E036E44D0042AD890C5
:1035F000033202320132000E0114066E000E021474
:10360000076EFE0E0314086E065007100810D8B49B
:103610000CD0ECD7042A010E0126000E0222000E67
:103620000322D890033202320132000E0114066EDA
:10363000000E0214076EFF0E0314086E06500710EA
:103640000810D8B406D0E6D70406D8900136023662
:10365000033602AEF9D704A0029ED890043204507B
:1036600003120550D8A4038E01C001F002C002F07D
:1036700003C003F01200FFFFFFFF000195519211FC
:1036800093119411D8B442D0010E0001966F0CD062
:103690000001D89000019237000193370001943760
:1036A000000195370001962B000195AFF1D700017D
:1036B000925100018E5D0001935100018F5900016C
:1036C0009451000190590001955100019159D8A0E1
:1036D00010D00001925100018E5F00019351000152
:1036E0008F5B000194510001905B00019551000136
:1036F000915B0001D89000019533000194330001E3
:103700009333000192330001962FD1D78EC08EF0F3
:103710008FC08FF090C090F091C091F01200FFFF29
:10372000FFFF000191059211D8A429D0FA0E86EC72
:103730001DF084901CD08FC0D9FF90C0DAFFDF50FD
:103740000001936F848293C083FF8492FA0E7BEC16
:103750001DF00001933BF00E9317848293C083FF0A
:103760008492FA0E7BEC1DF000018F4B902B8FC0E2
:10377000D9FF90C0DAFFDF50D8B424D0DCD78490D2
:103780001AD08FC0D9FF90C0DAFFDF500001936FCD
:10379000848293C083FF84920001933BF00E9317C1
:1037A000848293C083FF84920A0E64EC1DF08480AF
:1037B00000018F4B902B8FC0D9FF90C0DAFFDF50F4
:1037C000D8A4DFD71200FFFFFFFF8E0E0001A56F08
:1037D0000CD00001D8900001A03300019F330001FC
:1037E0009E3300019D330001A52B000E00019D15A5
:1037F0000001A16F000E00019E150001A26F000ED6
:1038000000019F150001A36FFF0E0001A01500012C
:10381000A46F0001A451A111A211A311D8A4D9D75A
:103820009DC08EF09EC08FF09FC090F0A5C091F01B
:10383000000E0001926FC5EC17F08EC09DF08FC096
:103840009EF090C09FF01200FFFFFFFFE9CF82F0D3
:10385000EACF83F0E1CF84F0E2CF85F0D9CF86F0D4
:10386000DACF87F0F3CF88F0F4CF89F0F6CF8AF083
:10387000F7CF8BF0F8CF8CF0F5CF8DF08DC0F5FF42
:103880008CC0F8FF8BC0F7FF8AC0F6FF89C0F4FF39
:1038900088C0F3FF87C0DAFF86C0D9FF85C0E2FF8A
:1038A00084C0E1FF83C0EAFF82C0E9FF81C0FBFF63
:1038B00080C0FAFF1100FFFFFFFF000E0C6E0A50E0
:1038C000800AF36E800EF35C000ED8B4095CD8B0A9
:1038D00006D0096C0A1ED8B00A2A010E0C6E09C067
:1038E00001F00AC002F0036A8E0E046E0CC005F0EF
:1038F000E6EC1AF001C009F002C00AF003C00BF0B8
:103900001200FFFFFFFF000E0001D11B000E00019F
:10391000D21B800E0001D31BCEC0C2F0CFC0C3F0BB
:10392000D0C0C4F0D1C0C5F0D2C0C6F0D3C0C7F07B
:1039300013EC12F0C2C0CEF0C3C0CFF0C4C0D0F0C0
:103940001200FFFF0101606B5F6B5E6B00EE40F0E9
:10395000110EEE6AE806FDE1380EF66E3B0EF76ECC
:10396000000EF86E01EE4CF010EE12F00900F5CFEB
:10397000EEFFE550E150FAE1000EF86E0001C7EFEE
:1039800015F0FFFFE10E926E9388938A93928182E5
:1039900094940F0E956E040E966E870EC16E100EE7
:1039A000806E8086FCEC1CF080968084FCEC1CF021
:1039B00080948082FCEC1CF080921200FFFFFFFFDD
:1039C00000019C5100019E03F3CFA0F0F4CFA1F0C1
:1039D00000019C5100019F03F3500001A127000149
:1039E0009D5100019E03F3500001A127A0C09CF04F
:1039F000A1C09DF01200FFFFFFFF000E0001906FBD
:103A0000320E00018F6F0DD0190E86EC1DF0FF0EE7
:103A100000018F2500018F6FFF0E00019021000132
:103A2000906F000190518F11D8B41200FFFFECD7B6
:103A3000FFFFFFFF7F0E0001A8150001A711000185
:103A4000A611D8B409D0000E0001A61B000E00017B
:103A5000A71B800E0001A81BA6C0A6F0A7C0A7F058
:103A6000A8C0A8F01200FFFFFFFF0001906F000E3A
:103A700000018F6F3A0E0001905DD8B007D02F0E75
:103A80000001906503D0010E00018F6F8FC08EF092
:103A900000018E311200FFFFFFFFD08EF28EF28CFC
:103AA000F19EF190F290F286BD86BD84BD92BD90EC
:103AB000F294F194F28AD59CD59AD586D58ECA8295
:103AC000CA80CA841200FFFFFFFF00018E6F020E42
:103AD00000F0E82EFDD700018E2FF9D71200FFFF6E
:103AE000FFFF8EC090F08FC091F091C0D7FF90C0C3
:103AF000D6FF1200FFFFFFFF00018E6F190EE82EA8
:103B0000FED700018E2FFAD71200FFFFFFFF000142
:103B10008E6FFA0EE82EFED700018E2FFAD7120014
:103B2000FFFFFFFF01C003F002C004F004C0D7FF95
:103B300003C0D6FF1200FFFF333228010C060084B9
:103B400043554E5400C552505300FFFFD59EF29A84
:063B50001200FFFFFFFF61
:020000040020DA
:08000000FFFFFFFFFFFFFFFF00
:020000040030CA
:0E000000FF02020EFF0181FF0FC00FE00F4054
:00000001FF
