:0600000000F0CFEF00F05C
:0E000800FFFFFACF91F0FBCF92F03CEF0CF02F
:10001800FFFFD8CF3CF0E8CF3DF0E0CF3EF0FACF7D
:100028003FF0FBCF40F0E9CF41F0EACF42F0E1CF1B
:1000380043F0E2CF44F0D9CF45F0DACF46F0F3CF22
:1000480047F0F4CF48F0F6CF49F0F7CF4AF0F8CFB1
:100058004BF0F5CF4CF0F2A004D097EC05F0F290FD
:100068002BD0F2A429D04DC004F04EC005F04FC0EB
:1000780006F0EFEC0CF004C00DF005C00EF006C061
:100088000FF0FE0E106ED40E116E3C0E126EB9EC0F
:100098000AF00DC02CF10EC02DF10FC02EF1000E8C
:1000A8004D6E000E4E6E000E4F6E000E026E000E6C
:1000B800016ED7EC0DF0F2944CC0F5FF4BC0F8FF81
:1000C8004AC0F7FF49C0F6FF48C0F4FF47C0F3FF36
:1000D80046C0DAFF45C0D9FF44C0E2FF43C0E1FF94
:1000E80042C0EAFF41C0E9FF40C0FBFF3FC0FAFF42
:1000F8003EC0E0FF3DC0E8FF3CC0D8FF1000FFFF56
:10010800FFFFD8CF80F0E8CF81F0E0CF82F0FACFC0
:1001180083F0FBCF84F0E9CF85F0EACF86F0E1CF1A
:1001280087F0E2CF88F0D9CF89F0DACF8AF0F3CF21
:100138008BF0F4CF8CF0F6CF8DF0F7CF8EF0F8CFB0
:100148008FF0F5CF90F0F2A202D08A78F29290C0A8
:10015800F5FF8FC0F8FF8EC0F7FF8DC0F6FF8CC08B
:10016800F4FF8BC0F3FF8AC0DAFF89C0D9FF88C0CB
:10017800E2FF87C0E1FF86C0EAFF85C0E9FF84C0CF
:10018800FBFF83C0FAFF82C0E0FF81C0E8FF80C0A8
:0A019800D8FF1000FFFFA2EF0CF0EB
:10060000000000FFFF01000200010000000200FFE7
:10061000FFFFFF02000000010002000100FFFF00D9
:10062000000004320000FFFF000E0101076F010E01
:100630000101066F000E0101056F000E0101046F3C
:10064000D0C0D8F004D1D4C09FF0D5C0A0F0D6C09F
:10065000A1F0000E0001A26F200E0001A36F410E59
:100660000001A46F26EC0BF0D8A018D0D4C0A7F0DE
:10067000D5C0A8F0D6C0A9F0000E0001AA6F200EC8
:100680000001AB6F410E0001AC6FF0EC08F0A7C0A9
:10069000D4F0A8C0D5F0A9C0D6F0D9D0D4C09FF06E
:1006A000D5C0A0F0D6C0A1F0000E0001A26F200EB0
:1006B0000001A36F410E0001A46F26EC0BF0D8B02F
:1006C00075D0D4C09FF0D5C0A0F0D6C0A1F0000E68
:1006D0000001A26F800E0001A36F3F0E0001A46F06
:1006E00026EC0BF0D8A062D00001D80E010106253F
:1006F000D96E0001000E01010721DA6ED4C09FF00F
:10070000D5C0A0F0D6C0A1F049EC08F09FC000F120
:10071000A0C001F1A1C002F1A2C003F1010100518A
:10072000300FDF6ED4C0B8F0D5C0B9F0D6C0BAF083
:10073000D4C09FF0D5C0A0F0D6C0A1F049EC08F01D
:100740009FC000F1A0C001F1A1C002F1A2C003F15D
:1007500000C1AEF001C1AFF073EC0CF0AEC0B2F06E
:10076000AFC0B3F0B0C0B4F069EC0DF0B2C0B5F0FA
:10077000B3C0B6F0B4C0B7F055EC04F0B5C0C1F0EA
:10078000B6C0C2F0B7C0C3F0000E0001C46F200EA7
:100790000001C56F410E0001C66F95EC07F0C1C0A6
:1007A000D4F0C2C0D5F0C3C0D6F04ED0D4C09FF0B4
:1007B000D5C0A0F0D6C0A1F0000E0001A26F800E3F
:1007C0000001A36F3F0E0001A46F26EC0BF0D8B020
:1007D0003ED0D4C0C1F0D5C0C2F0D6C0C3F0000E28
:1007E0000001C46F200E0001C56F410E0001C66FED
:1007F00095EC07F0C1C0D4F0C2C0D5F0C3C0D6F0AC
:10080000010105510411D8A413D00001D80E010133
:100810000625D96E0001000E01010721DA6E2E0EA9
:10082000DF6E000E0101056F010E0101046F0CD097
:100830000001D80E01010625D96E0001000E01014C
:100840000721DA6E300EDF6E0101064B072B010126
:100850000751800A0101006F0001D2510101065DBC
:100860000001D351800A01010059D8A0ECD6000143
:10087000D80E0001D225D96E0001000E0001D3214F
:10088000DA6E000EDF6E0001000E0001A16F0001A4
:10089000D80E0001A06F000E0001A36F000E000132
:1008A000A26FE8EC0BF01200FFFFFFFF0001B7C0E2
:1008B000BBF00001BC6BBD6B0001B6350001BB375E
:1008C00001E3BC810001BB510001C06F0001BAC04F
:1008D000BBF00001BC6BBD6B0001B9350001BB373B
:1008E00001E3BC810001BB510001BF6F0001C05199
:1008F000D8B412D00001BF510001C05DD8B013D0F0
:100900000001C05100080001BF250001BB6F190E96
:100910000001BB5DD8A007D0B8C0B5F0B9C0B6F033
:10092000BAC0B7F002D10001BF51D8B412D0000153
:10093000C0510001BF5DD8B013D00001BF51000805
:100940000001C0250001BB6F190E0001BB5DD8A0DE
:1009500007D0B5C0B5F0B6C0B6F0B7C0B7F0E5D0B7
:10096000060E0001BE6F0001B7AF02D00001BE8FBE
:100970000001BAAF02D00001BE8D0001B68FFF0E9C
:100980000001B517FF0E0001B617000E0001B717E2
:100990000001B98FFF0E0001B817FF0E0001B91753
:1009A000000E0001BA170001BF510001C05DD8B0B0
:1009B0002AD00001D8900001B8370001B9370001F2
:1009C000BA370001BF070001BF510001C019D8B4F8
:1009D00014D00001BE07BEC0BBF0070E0001BB175C
:1009E000D8B40BD0E6D70001D8900001B73300018E
:1009F000B6330001B5330001C02B0001BF51000127
:100A0000C063F1D72FD00001C0510001BF5DD8B045
:100A100029D00001D8900001B5370001B637000198
:100A2000B7370001C0070001BF510001C019D8B499
:100A300014D00001BE07BEC0BBF0070E0001BB17FB
:100A4000D8B40BD0E6D70001D8900001BA3300012A
:100A5000B9330001B8330001BF2B0001BF510001C1
:100A6000C063F1D70001BEAF12D0FF0E0001B51B6D
:100A7000FF0E0001B61BFF0E0001B71B010E0001A7
:100A8000B527000E0001B623000E0001B7230001B8
:100A9000BEAD12D0FF0E0001B81BFF0E0001B91B46
:100AA000FF0E0001BA1B010E0001B827000E000165
:100AB000B923000E0001BA23000E0001BE6F000131
:100AC000B5510001B8270001B6510001B92300015A
:100AD000B7510001BA230001BAAF15D0FF0E0001D3
:100AE000B81BFF0E0001B91BFF0E0001BA1B010E5F
:100AF0000001B827000E0001B923000E0001BA233F
:100B0000010E0001BE6FB8C09FF0B9C0A0F0BAC01E
:100B1000A1F0C0C0A2F0BEC0A3F032EC0AF09FC0AA
:100B2000B5F0A0C0B6F0A1C0B7F01200FFFFFFFF04
:100B300081AA03D02E6A2E2A01D02E6A2E50366E3C
:100B4000376A81A803D02E6A2E2A01D02E6A2E5031
:100B5000386E396A52C02EF053C02FF0D8902E361E
:100B60002F3654502E24326E55502F20336E36C0FF
:100B70002EF037C02FF0D8902E362F3638502E2436
:100B8000346E39502F20356E32C02EF033C02FF026
:100B9000D8902E362F36D8902E362F3634502E261B
:100BA00035502F22D8902E362F36010E2E24F66E79
:100BB000060E2F20F76E0900FFFFF5CF3AF00A006E
:100BC000FFFFF5CF3BF03A50020A3B10D8A405D006
:100BD00058C03AF059C03BF008D036C052F037C088
:100BE00053F038C054F039C055F03A043B10D8A443
:100BF00003D0564A572A07D03A28D8B43B28D8A45D
:100C000002D0504A512A230EF66E0900FFFFF5CF9D
:100C10002EF00900FFFFF5CF2FF056C030F057C07F
:100C200031F050503026515031222F50311802E10E
:100C30002E503018D8A49BD05150800A2E6E56509A
:100C4000505C5750800A2E58D8B03ED08086809491
:100C500080924DC028F04EC029F04FC02AF0210EDE
:100C6000F66E0900FFFFF5CF09F00A00FFFFF5CF90
:100C70000AF0C9EC0CF009C010F00AC011F00BC06A
:100C800012F0230EF66E0900FFFFF5CF09F00A00FF
:100C9000FFFFF5CF0AF0C9EC0CF009C00DF00AC057
:100CA0000EF00BC00FF0B9EC0AF00DC02BF00EC027
:100CB0002CF00FC02DF04CEC0DF028C04DF029C0E9
:100CC0004EF02AC04FF04BD05750800A2E6E505035
:100CD000565C5150800A2E58D8B03ED08096808401
:100CE00080924DC01CF04EC01DF04FC01EF0210E72
:100CF000F66E0900FFFFF5CF09F00A00FFFFF5CF00
:100D00000AF0C9EC0CF009C010F00AC011F00BC0D9
:100D100012F0230EF66E0900FFFFF5CF09F00A006E
:100D2000FFFFF5CF0AF0C9EC0CF009C00DF00AC0C6
:100D30000EF00BC00FF0B9EC0AF00DC01FF00EC0A2
:100D400020F00FC021F0BDEC06F01CC04DF01DC01E
:100D50004EF01EC04FF003D0809680948092000E1B
:100D6000576E000E566E000E516E000E506E3AC059
:100D700058F03BC059F01200FFFFFFFF1EC022F0E9
:100D8000236A246A1D34223601E323802250276E11
:100D900021C022F0236A246A2034223601E3238012
:100DA0002250266E2750D8B40CD02650275CD8B0DD
:100DB0000FD0275000082624226E190E225CD8A0DE
:100DC00007D01FC01CF020C01DF021C01EF0ABD00A
:100DD0002650D8B40CD02750265CD8B00FD026505F
:100DE00000082724226E190E225CD8A007D01CC050
:100DF0001CF01DC01DF01EC01EF095D0060E256E05
:100E00001EBE258E21BE258C1D8EFF0E1C16FF0ECC
:100E10001D16000E1E16208EFF0E1F16FF0E20162A
:100E2000000E21162650275CD8B01AD0D8901F3655
:100E300020362136260626502718D8B40DD0250690
:100E400025C022F0070E2216D8B406D0EFD7D890CE
:100E50001E321D321C32272A26502762F8D71DD099
:100E60002750265CD8B019D0D8901C361D361E36B7
:100E7000270626502718D8B40DD0250625C022F005
:100E8000070E2216D8B406D0EFD7D89021322032E0
:100E90001F32262A26502762F8D725AE0CD0FF0E27
:100EA0001C1AFF0E1D1AFF0E1E1A010E1C26000E24
:100EB0001D22000E1E2225AC0CD0FF0E1F1AFF0EA5
:100EC000201AFF0E211A010E1F26000E2022000EEE
:100ED0002122000E256E1C501F261D5020221E5060
:100EE000212221AE0ED0FF0E1F1AFF0E201AFF0E78
:100EF000211A010E1F26000E2022000E2122010EB3
:100F0000256E1FC001F020C002F021C003F027C0F1
:100F100004F025C005F092EC0BF001C01CF002C0FB
:100F20001DF003C01EF01200FFFFFFFF0001C3C051
:100F3000C7F00001C86BC96B0001C2350001C7379B
:100F400001E3C8810001C7510001CA6F0001CA67EF
:100F500001D013D00001C6C0C7F00001C86BC96B37
:100F60000001C5350001C73701E3C8810001C75141
:100F70000001CF6F0001CF670AD0000E0001C16FE2
:100F8000000E0001C26F000E0001C36F80D000018F
:100F9000CF517B0F0001CA27C3C0CFF00001C6515B
:100FA0000001CF1B800E0001CF170001C28F00018E
:100FB000C58FFF0E0001C417FF0E0001C517000EFC
:100FC0000001C617000E0001CB6F000E0001CC6FB0
:100FD000000E0001CD6F070E0001CE6F0001C1A110
:100FE0000CD00001C4510001CB270001C551000104
:100FF000CC230001C6510001CD230001D89000018F
:10100000C3330001C2330001C1330001D890000195
:10101000C4370001C5370001C6370001CE2FDED727
:10102000090E0001CE6F0001C1A10CD00001C45116
:101030000001CB270001C5510001CC230001C6519E
:101040000001CD230001D8900001C3330001C23359
:101050000001C1330001D8900001CD330001CC3331
:101060000001CB330001CE2FDED7CBC09FF0CCC028
:10107000A0F0CDC0A1F0CAC0A2F0CFC0A3F032EC66
:101080000AF09FC0C1F0A0C0C2F0A1C0C3F012001E
:10109000FFFFFFFF0001A1C0A3F00001A46BA56B3F
:1010A0000001A0350001A33701E3A4810001A35191
:1010B0000001AD6F0001AD6701D059D0170E0001DE
:1010C000A36F00019FC0A4F00001A0C0A5F0000123
:1010D000A1C0A6F00001A3290001A76F05D000015F
:1010E000D890A633A533A4330001A72FF8D7000169
:1010F000A4510001A86F0001A08FFF0E00019F17EF
:10110000FF0E0001A017000E0001A11700019F5162
:101110000001A96F0001A0510001AA6F0001A151B7
:101120000001AB6F0001AC6B8E0E0001AD5F0001E2
:10113000ADAF19D00001AD51800A0001A36FF10ECF
:10114000800A0001A35DD8A012D00001D890000150
:10115000AC330001AB330001AA330001A933000115
:10116000AD3FF3D720D0170E0001AD6519D0000EAA
:1011700000019F6F000E0001A06F000E0001A16F23
:10118000000E0001A26F2AD00001D8900001A937FB
:101190000001AA370001AB370001AC370001AD07F1
:1011A0000001AD67F1D70001A851D8B40FD00001FC
:1011B000AC1F0001AB1F0001AA1F0001A96D000EAA
:1011C0000001AA230001AB230001AC23A9C09FF0BA
:1011D000AAC0A0F0ABC0A1F0ACC0A2F01200FFFF0B
:1011E000FFFF0001A9C0ADF00001AE6BAF6B0001C5
:1011F000A8350001AD3701E3AE810001AD5100011A
:10120000B46F0001B46701D013D00001ACC0ADF0E1
:101210000001AE6BAF6B0001AB350001AD3701E3F0
:10122000AE810001AD510001B56F0001B5670AD074
:10123000000E0001A76F000E0001A86F000E000154
:10124000A96F71D0000E0001B16F000E0001B26FE6
:10125000000E0001B36F0001B551890F0001B45FAA
:10126000A9C0B5F00001AC510001B51B800E000112
:10127000B5170001A88FFF0E0001A717FF0E000190
:10128000A817000E0001A9170001AB8FFF0E000187
:10129000AA17FF0E0001AB17000E0001AC17180EC5
:1012A0000001B06F0001D8900001B1370001B237E2
:1012B0000001B3370001AA510001A75D0001AB5145
:1012C0000001A8590001AC510001A959D8A00ED0C5
:1012D0000001AA510001A75F0001AB510001A85B0A
:1012E0000001AC510001A95B0001B1810001D8905F
:1012F0000001A7370001A8370001A9370001B02F6E
:10130000D1D7B1C09FF0B2C0A0F0B3C0A1F0B4C0BB
:10131000A2F0B5C0A3F032EC0AF09FC0A7F0A0C0C5
:10132000A8F0A1C0A9F01200FFFFFFFF21EE1AF004
:1013300011EE08F0070EDECFE6FFE82EFCD721EE17
:1013400021F011EE0FF0060EDECFE6FFE82EFCD7FF
:1013500021EE27F011EE15F0050EDECFE6FFE82EA8
:10136000FCD712EC0DF00101010E0001A16F01018B
:10137000080E0001A06F000E0001A36F010E000116
:10138000A26FE8EC0BF00101010E0001A16F010159
:101390000F0E0001A06F000E0001A36F000E0001F0
:1013A000A26FE8EC0BF00101010E0001A16F010139
:1013B000150E0001A06F000E0001A36F000E0001CA
:1013C000A26FE8EC0BF081AA04D00001D76BD72BF9
:1013D00002D00001D76B0001D751526E536A81A829
:1013E00004D00001D76BD72B02D00001D76B0001CE
:1013F000D751546E556A000E596E000E586E000E8D
:10140000516E000E506E000E576E000E566E000E9E
:1014100001012C6F000E01012D6F000E01012E6FD6
:1014200099EC0DF0000E0001A06F000E00019F6FFF
:10143000B6EC0DF0190ECCEC0DF0000E0001D16FE2
:10144000C00E0001D06F000E0001D36F050E000129
:10145000D26F2CC1D4F02DC1D5F02EC1D6F013EC33
:1014600003F0E8D7FFFF0001A251D8B408D0000173
:101470009F510001A0110001A111D8A414D0000EA9
:1014800000019F6F000E0001A06F000E0001A16F10
:101490006ED00001A22B0001D8900001A133000101
:1014A000A03300019F33000E00019F150001A46FBF
:1014B000000E0001A0150001A56FFE0E0001A11590
:1014C0000001A66F0001A451A511A611D8B414D033
:1014D000E0D70001A22B010E00019F27000E0001A2
:1014E000A023000E0001A1230001D8900001A13328
:1014F0000001A03300019F33000E00019F15000181
:10150000A46F000E0001A0150001A56FFF0E0001E1
:10151000A1150001A66F0001A451A511A611D8B410
:101520000BD0D7D70001A2070001D89000019F3748
:101530000001A0370001A1370001A0AFF3D70001DF
:10154000A2B102D00001A09F0001D890A2330001F7
:10155000A2510001A1130001A351D8B402D000018F
:10156000A18F9FC09FF0A0C0A0F0A1C0A1F0120069
:10157000FFFFFFFF0FC013F0146A156A0E34133615
:1015800001E3148013501A6E1A6601D00CD012C0F9
:1015900013F0146A156A1134133601E314801350E2
:1015A0001B6E1B6607D0000E0D6E000E0E6E000E39
:1015B0000F6E4AD0000E176E000E186E000E196ED8
:1015C0001B50890F1A5E0FC01BF012501B1A800EA1
:1015D0001B160E8EFF0E0D16FF0E0E16000E0F16AA
:1015E000118EFF0E1016FF0E1116000E1216180E99
:1015F000166ED89017361836193610500D5C1150EB
:101600000E5812500F58D8A007D010500D5E115030
:101610000E5A12500F5A1780D8900D360E360F36CC
:10162000162EE7D717C001F018C002F019C003F05A
:101630001AC004F01BC005F092EC0BF001C00DF0D5
:1016400002C00EF003C00FF01200FFFFFFFF000109
:10165000A1AF20D000019FC0A5F00001A0C0A6F05E
:101660000001A1C0A7F00001A51FA61FA71FA52B61
:10167000000EA623A723000E0001A52500019F6FE1
:10168000000E0001A6210001A06F800E0001A7211D
:101690000001A16F0001A4AF20D00001A2C0A5F0FD
:1016A0000001A3C0A6F00001A4C0A7F00001A51F7F
:1016B000A61FA71FA52B000EA623A723000E00011F
:1016C000A5250001A26F000E0001A6210001A36F55
:1016D000800E0001A7210001A46F000E00019F1BD6
:1016E000000E0001A01B800E0001A11B000E0001D6
:1016F000A21B000E0001A31B800E0001A41B000111
:10170000A25100019F5D0001A3510001A0590001F9
:10171000A4510001A159D8B002D0D89001D0D880EE
:101720001200FFFFFFFF0450D8B405D00150021093
:101730000310D8A40CD0000E016E000E026E000E35
:10174000036E44D0042AD890033202320132000ED4
:101750000114066E000E0214076EFE0E0314086ECE
:10176000065007100810D8B40CD0ECD7042A010E8C
:101770000126000E0222000E0322D890033202320C
:101780000132000E0114066E000E0214076EFF0EE9
:101790000314086E065007100810D8B406D0E6D718
:1017A0000406D89001360236033602AEF9D704A0FB
:1017B000029ED8900432045003120550D8A4038E20
:1017C00001C001F002C002F003C003F01200FFFFED
:1017D000FFFF0001A205A311D8A429D0FA0ECCEC7A
:1017E0000DF084901CD0A0C0D9FFA1C0DAFFDF505B
:1017F0000001A46F8482A4C083FF8492FA0EC1EC1E
:101800000DF00001A43BF00EA4178482A4C083FF56
:101810008492FA0EC1EC0DF00001A04BA12BA0C0E8
:10182000D9FFA1C0DAFFDF50D8B424D0DCD7849030
:101830001AD0A0C0D9FFA1C0DAFFDF500001A46F09
:101840008482A4C083FF84920001A43BF00EA417FD
:101850008482A4C083FF84920A0EAAEC0DF08480D7
:101860000001A04BA12BA0C0D9FFA1C0DAFFDF501F
:10187000D8A4DFD71200FFFFFFFFE9CF93F0EACF34
:1018800094F0E1CF95F0E2CF96F0D9CF97F0DACF90
:1018900098F0F3CF99F0F4CF9AF0F6CF9BF0F7CF12
:1018A0009CF0F8CF9DF0F5CF9EF09EC0F5FF9DC057
:1018B000F8FF9CC0F7FF9BC0F6FF9AC0F4FF99C0E9
:1018C000F3FF98C0DAFF97C0D9FF96C0E2FF95C03A
:1018D000E1FF94C0EAFF93C0E9FF92C0FBFF91C013
:1018E000FAFF1100FFFFFFFF000E0001B16F0001C2
:1018F000AF51800AF36E800EF35C000ED8B4AE5D7B
:10190000D8B009D00001AE6D0001AF1FD8B0AF2B29
:10191000010E0001B16F0001AEC09FF00001AFC029
:10192000A0F00001A16B8E0E0001A26FB1C0A3F068
:1019300032EC0AF09FC0AEF0A0C0AFF0A1C0B0F092
:101940001200FFFF01012E6B2D6B2C6B00EED8F007
:10195000080EEE6AE806FDE100EE4DF00D0EEE6AAF
:10196000E806FDE1C40EF66E1B0EF76E000EF86E73
:1019700001EE1AF010EE12F00900F5CFEEFFE5507F
:10198000E150FAE1000EF86E060EF76E000195EFD9
:1019900009F0FFFF000E0C6E0A50800AF36E800EF5
:1019A000F35C000ED8B4095CD8B006D0096C0A1EEE
:1019B000D8B00A2A010E0C6E09C001F00AC002F06C
:1019C000036A8E0E046E0CC005F092EC0BF001C0A1
:1019D00009F002C00AF003C00BF01200FFFFFFFF86
:1019E0000650800A800F05E1000E055C02E1000E42
:1019F000045CD8B00FD004C001F005C002F006C0EE
:101A000003F084EC0DF001C004F002C005F003C047
:101A100006F006D004C004F005C005F006C006F0CC
:101A20001200FFFFFFFFE10E926E9388938A93925C
:101A300081820F0E956E040E966E870EC16E100E8B
:101A4000806E80862FEC0DF0809680842FEC0DF058
:101A5000809480822FEC0DF080921200FFFFFFFF38
:101A6000000E0001A16F320E0001A06F0DD0190E03
:101A7000CCEC0DF0FF0E0001A0250001A06FFF0EC1
:101A80000001A1210001A16F0001A151A011D8B452
:101A90001200FFFFECD7FFFFFFFF000E2B1A000E16
:101AA0002C1A800E2D1A28C01CF029C01DF02AC047
:101AB0001EF02BC01FF02CC020F02DC021F0BDEC7B
:101AC00006F01CC028F01DC029F01EC02AF012002C
:101AD000FFFFFFFF7F0E0001B4150001B3110001ED
:101AE000B211D8B409D0000E0001B21B000E0001E3
:101AF000B31B800E0001B41BB2C0B2F0B3C0B3F090
:101B0000B4C0B4F01200FFFFFFFF7F0E03140210F9
:101B10000110D8B406D0000E011A000E021A800E71
:101B2000031A01C001F002C002F003C003F012006A
:101B3000FFFFFFFFD08EF28EF28CF19EF190F290BB
:101B4000F286D59CD59AD586D58EF294F194F28AF8
:101B50001200FFFFFFFF00019F6F020E00F0E82E52
:101B6000FDD700019F2FF9D71200FFFFFFFF9FC095
:101B7000A1F0A0C0A2F0A2C0D7FFA1C0D6FF120062
:101B8000FFFFFFFF00019F6F190EE82EFED7000137
:101B90009F2FFAD71200FFFFFFFF00019F6FFA0E81
:101BA000E82EFED700019F2FFAD71200FFFFFFFF9C
:101BB00001C003F002C004F004C0D7FF03C0D6FF89
:101BC0001200FFFF333228010C06008443554E54A7
:101BD00000C552505300FFFFD59EF29A1200FFFF3E
:021BE000FFFF05
:020000040020DA
:08000000FFFFFFFFFFFFFFFF00
:020000040030CA
:0E000000FF02020EFF0181FF0FC00FE00F4054
:00000001FF
