:0600000000F0A3EF00F088
:0E000800FFFFFACF91F0FBCF92F0D9EF01F09D
:10001800FFFFD8CF2DF0E8CF2EF0E0CF2FF0FACFAA
:1000280030F0FBCF31F0E9CF32F0EACF33F0E1CF57
:1000380034F0E2CF35F0D9CF36F0DACF37F0F3CF5E
:1000480038F0F4CF39F0F6CF3AF0F7CF3BF0F8CFED
:100058003CF0F5CF3DF0F2A003D0A5EC00F0F29013
:100068003DC0F5FF3CC0F8FF3BC0F7FF3AC0F6FFC4
:1000780039C0F4FF38C0F3FF37C0DAFF36C0D9FF04
:1000880035C0E2FF34C0E1FF33C0EAFF32C0E9FF08
:1000980031C0FBFF30C0FAFF2FC0E0FF2EC0E8FFE1
:1000A8002DC0D8FF1000FFFFFFFFD8CF80F0E8CFAA
:1000B80081F0E0CF82F0FACF83F0FBCF84F0E9CF74
:1000C80085F0EACF86F0E1CF87F0E2CF88F0D9CF8C
:1000D80089F0DACF8AF0F3CF8BF0F4CF8CF0F6CF3B
:1000E8008DF0F7CF8EF0F8CF8FF0F5CF90F0F2A229
:1000F80002D08A78F29290C0F5FF8FC0F8FF8EC0C8
:10010800F7FF8DC0F6FF8CC0F4FF8BC0F3FF8AC0E9
:10011800DAFF89C0D9FF88C0E2FF87C0E1FF86C047
:10012800EAFF85C0E9FF84C0FBFF83C0FAFF82C0F5
:10013800E0FF81C0E8FF80C0D8FF1000FFFF11EF8B
:1001480002F0FFFF20EE3EF010EE03F0200EDECFAF
:10015800E6FFE82EFCD781A803D0016A012A01D066
:10016800016A0150276E286A81AA03D0016A012A10
:1001780001D0016A0150296E2A6A5EC001F05FC091
:1001880002F0D8900136023660500124236E615087
:100198000220246E27C001F028C002F0D890013652
:1001A800023629500124256E2A500220266E23C0CB
:1001B80001F024C002F0D89001360236D8900136FA
:1001C80002362550012626500222D89001360236E2
:1001D800030E0124D96E000E0220DA6EDECF2BF05A
:1001E800DDCF2CF02B042C10D8A402D0808612D09E
:1001F8002B28D8B42C28D8A403D0809680840BD080
:100208002B50020A2C10D8A404D0809680948082A7
:1002180003D080968094809227C05EF028C05FF05B
:1002280029C060F02AC061F01200FFFFFFFF20EE36
:10023800B8F010EEA6F0070EDECFE6FFE82EFCD7EA
:1002480020EEBFF010EEADF0060EDECFE6FFE82E92
:10025800FCD720EEC5F010EEB3F0050EDECFE6FFBA
:10026800E82EFCD738EC02F00001000E0001A16F67
:100278000001A60E0001A06F000E0001A36F010E81
:100288000001A26F85EC01F00001000E0001A16FD2
:100298000001AD0E0001A06F000E0001A36F000E5B
:1002A8000001A26F85EC01F00001000E0001A16FB2
:1002B8000001B30E0001A06F000E0001A36F000E35
:1002C8000001A26F85EC01F081AA04D00001A56BA2
:1002D800A52B02D00001A56B0001A5515E6E5F6AD7
:1002E80081A804D00001A56BA52B02D00001A56B45
:1002F8000001A551606E616AADEC02F055EC02F0A8
:10030800FDD7FFFF0001A205A311D8A429D0FA0E3A
:100318008EEC02F084901CD0A0C0D9FFA1C0DAFFF7
:10032800DF500001A46F8482A4C083FF8492FA0E78
:1003380099EC02F00001A43BF00EA4178482A4C03B
:1003480083FF8492FA0E99EC02F00001A04BA12BD6
:10035800A0C0D9FFA1C0DAFFDF50D8B424D0DCD7C1
:1003680084901AD0A0C0D9FFA1C0DAFFDF500001E5
:10037800A46F8482A4C083FF84920001A43BF00E82
:10038800A4178482A4C083FF84920A0E82EC02F030
:1003980084800001A04BA12BA0C0D9FFA1C0DAFF27
:1003A800DF50D8A4DFD71200FFFFFFFFE9CF93F09B
:1003B800EACF94F0E1CF95F0E2CF96F0D9CF97F05D
:1003C800DACF98F0F3CF99F0F4CF9AF0F6CF9BF00C
:1003D800F7CF9CF0F8CF9DF0F5CF9EF09EC0F5FFCB
:1003E8009DC0F8FF9CC0F7FF9BC0F6FF9AC0F4FFC2
:1003F80099C0F3FF98C0DAFF97C0D9FF96C0E2FF13
:1004080095C0E1FF94C0EAFF93C0E9FF92C0FBFFEB
:1004180091C0FAFF1100FFFFFFFF616A606A5F6A1F
:100428005E6A480EF66E050EF76E000EF86E00EE68
:10043800B8F010EE12F00900F5CFEEFFE550E150EC
:10044800FAE1E40EF66E040EF76E000EF86E00EE9A
:100458003EF010EE20F00900F5CFEEFFE550E15038
:10046800FAE100011AEF01F0FFFFE10E926E9388A6
:10047800938A939281820F0E956E040E966E870E64
:10048800C16E100E806E808655EC02F080968084D6
:1004980055EC02F08094808255EC02F080921200B4
:1004A800FFFFFFFF000E0001A16F320E0001A06FD9
:1004B8000DD0190E8EEC02F0FF0E0001A0250001F0
:1004C800A06FFF0E0001A1210001A16F0001A15141
:1004D800A011D8B41200FFFFECD7FFFF0000FFFF08
:1004E80001000200010000000200FFFFFFFF020000
:1004F8000000010002000100FFFF0000FFFF0001F3
:100508009F6F020E00F0E82EFDD700019F2FF9D74C
:100518001200FFFFFFFF00019F6FFA0EE82EFED7C3
:1005280000019F2FFAD71200FFFFFFFF00019F6F06
:10053800190EE82EFED700019F2FFAD71200FFFFF1
:10054800333228010C06008443554E5400C55250DE
:100558004D00FFFFD08E000EF16EC80EF26EF28EC7
:060568001200FFFFFFFF7F
:020000040020DA
:08000000FFFFFFFFFFFFFFFF00
:020000040030CA
:0E000000FF02020EFF0181FF0FC00FE00F4054
:00000001FF
