:0600000000F0A3EF00F088
:0E000800FFFFFACF2FF0FBCF30F06DEF04F0CA
:10001800FFFFD8CF0DF0E8CF0EF0E0CF0FF0FACF0A
:1000280010F0FBCF11F0E9CF12F0EACF13F0E1CFD7
:1000380014F0E2CF15F0D9CF16F0DACF17F0F3CFDE
:1000480018F0F4CF19F0F6CF1AF0F7CF1BF0F8CF6D
:100058001CF0F5CF1DF0F2A003D011EC03F0F290E4
:100068001DC0F5FF1CC0F8FF1BC0F7FF1AC0F6FF44
:1000780019C0F4FF18C0F3FF17C0DAFF16C0D9FF84
:1000880015C0E2FF14C0E1FF13C0EAFF12C0E9FF88
:1000980011C0FBFF10C0FAFF0FC0E0FF0EC0E8FF61
:1000A8000DC0D8FF1000FFFFFFFFD8CF1EF0E8CF2C
:1000B8001FF0E0CF20F0FACF21F0FBCF22F0E9CFFC
:1000C80023F0EACF24F0E1CF25F0E2CF26F0D9CF14
:1000D80027F0DACF28F0F3CF29F0F4CF2AF0F6CFC3
:1000E8002BF0F7CF2CF0F8CF2DF0F5CF2EF0F2A2B1
:1000F80002D08A78F2922EC0F5FF2DC0F8FF2CC0EE
:10010800F7FF2BC0F6FF2AC0F4FF29C0F3FF28C071
:10011800DAFF27C0D9FF26C0E2FF25C0E1FF24C0CF
:10012800EAFF23C0E9FF22C0FBFF21C0FAFF20C07D
:10013800E0FF1FC0E8FF1EC0D8FF1000FFFFA4EFBC
:0201480004F0C1
:10060000000000FFFF01000200010000000200FFE7
:10061000FFFFFF02000000010002000100FFFF00D9
:100620000000FFFF81AA03D0016A012A01D0016AFC
:100630000150076E086A81A803D0016A012A01D01F
:10064000016A0150096E0A6A3EC001F03FC002F023
:10065000D8900136023640500124036E41500220EA
:10066000046E07C001F008C002F0D89001360236CF
:1006700009500124056E0A500220066E03C001F0E5
:1006800004C002F0D89001360236D8900136023606
:100690000550012606500222D89001360236010E7E
:1006A0000124F66E060E0220F76E0900FFFFF5CF5B
:1006B0000BF00A00FFFFF5CF0CF00B50020A0C10F4
:1006C000D8A429D042C00BF043C00CF03EC007F0C4
:1006D0003FC008F040C009F041C00AF00B040C1004
:1006E000D8A40AD007C040F008C041F0010E091894
:1006F0003E6E0A503F6E17D00B28D8B40C28D8A4F1
:1007000012D0010E0718406E0850416E09C03EF02D
:100710000AC03FF008D007C03EF008C03FF009C053
:1007200040F00AC041F00B040C10D8A402D080861F
:1007300009D00B28D8B40C28D8A403D08096808484
:1007400002D08096809480920BC042F00CC043F09F
:100750001200FFFFFFFF20EE98F010EE86F0070E6C
:10076000DECFE6FFE82EFCD720EE9FF010EE8DF0F6
:10077000060EDECFE6FFE82EFCD720EEA5F010EE49
:1007800093F0050EDECFE6FFE82EFCD7C1EC04F0B7
:100790000001000E0001816F0001860E0001806FD4
:1007A000000E0001836F010E0001826F19EC04F04E
:1007B0000001000E0001816F00018D0E0001806FAD
:1007C000000E0001836F000E0001826F19EC04F02F
:1007D0000001000E0001816F0001930E0001806F87
:1007E000000E0001836F000E0001826F19EC04F00F
:1007F00081AA04D00001856B852B02D00001856B96
:10080000000185513E6E3F6A81A804D00001856BCE
:10081000852B02D00001856B00018551406E416A35
:10082000000E436E000E426E20EC05F0DEEC04F08C
:10083000FDD7FFFF000182058311D8A429D0FA0E4D
:100840000EEC05F084901CD080C0D9FF81C0DAFF87
:10085000DF500001846F848284C083FF8492FA0E8B
:1008600017EC05F00001843BF00E8417848284C0ED
:1008700083FF8492FA0E17EC05F00001804B812B68
:1008800080C0D9FF81C0DAFFDF50D8B424D0DCD7D4
:1008900084901AD080C0D9FF81C0DAFFDF500001F8
:1008A000846F848284C083FF84920001843BF00EB5
:1008B0008417848284C083FF84920A0EFBEC04F0C8
:1008C00084800001804B812B80C0D9FF81C0DAFF7A
:1008D000DF50D8A4DFD71200FFFFFFFFE9CF31F0D0
:1008E000EACF32F0E1CF33F0E2CF34F0D9CF35F0B8
:1008F000DACF36F0F3CF37F0F4CF38F0F6CF39F067
:10090000F7CF3AF0F8CF3BF0F5CF3CF03CC0F5FF25
:100910003BC0F8FF3AC0F7FF39C0F6FF38C0F4FF1C
:1009200037C0F3FF36C0DAFF35C0D9FF34C0E2FF6D
:1009300033C0E1FF32C0EAFF31C0E9FF30C0FBFF46
:100940002FC0FAFF1100FFFF436A426A416A406A02
:100950003F6A3E6A0A0EF66E0A0EF76E000EF86ED9
:1009600000EE98F010EE12F00900F5CFEEFFE55022
:10097000E150FAE1000EF86E060EF76E0001AAEFE4
:1009800003F0FFFFE10E926E9388938A9392818227
:100990000F0E956E040E966E870EC16E100E806E51
:1009A0008086DEEC04F080968084DEEC04F0809497
:1009B0008082DEEC04F080921200FFFFFFFF000E49
:1009C0000001816F320E0001806F0DD0190E0EEC08
:1009D00005F0FF0E000180250001806FFF0E000171
:1009E00081210001816F000181518011D8B4120072
:1009F000FFFFECD7FFFFFFFF3D6E020E00F0E82E79
:100A0000FDD73D2EFAD71200FFFF333228010C0626
:100A1000008443554E5400C552504D00FFFF3D6EBB
:100A2000FA0EE82EFED73D2EFBD71200FFFFFFFF88
:100A30003D6E190EE82EFED73D2EFBD71200FFFFAC
:100A4000FFFFD08E000EF16EC80EF26E1200FFFF97
:020A5000FFFFA6
:020000040020DA
:08000000FFFFFFFFFFFFFFFF00
:020000040030CA
:0E000000FF02020EFF0181FF0FC00FE00F4054
:00000001FF
