:0600000000F0CFEF00F05C
:0E000800FFFFFACF91F0FBCF92F02FEF1EF02A
:10001800FFFFD8CF3CF0E8CF3DF0E0CF3EF0FACF7D
:100028003FF0FBCF40F0E9CF41F0EACF42F0E1CF1B
:1000380043F0E2CF44F0D9CF45F0DACF46F0F3CF22
:1000480047F0F4CF48F0F6CF49F0F7CF4AF0F8CFB1
:100058004BF0F5CF4CF0F2A004D055EC13F0F29031
:100068002BD0F2A429D04DC004F04EC005F04FC0EB
:1000780006F08CEC1EF004C00DF005C00EF006C0B2
:100088000FF0FE0E106ED40E116E3C0E126E47EC81
:100098001BF00DC080F10EC081F10FC082F1000E7F
:1000A8004D6E000E4E6E000E4F6E000E026E000E6C
:1000B800016EF0EC1FF0F2944CC0F5FF4BC0F8FF56
:1000C8004AC0F7FF49C0F6FF48C0F4FF47C0F3FF36
:1000D80046C0DAFF45C0D9FF44C0E2FF43C0E1FF94
:1000E80042C0EAFF41C0E9FF40C0FBFF3FC0FAFF42
:1000F8003EC0E0FF3DC0E8FF3CC0D8FF1000FFFF56
:10010800FFFFD8CF80F0E8CF81F0E0CF82F0FACFC0
:1001180083F0FBCF84F0E9CF85F0EACF86F0E1CF1A
:1001280087F0E2CF88F0D9CF89F0DACF8AF0F3CF21
:100138008BF0F4CF8CF0F6CF8DF0F7CF8EF0F8CFB0
:100148008FF0F5CF90F0F2A202D08A78F29290C0A8
:10015800F5FF8FC0F8FF8EC0F7FF8DC0F6FF8CC08B
:10016800F4FF8BC0F3FF8AC0DAFF89C0D9FF88C0CB
:10017800E2FF87C0E1FF86C0EAFF85C0E9FF84C0CF
:10018800FBFF83C0FAFF82C0E0FF81C0E8FF80C0A8
:10019800D8FF1000FFFFCFEF1EF0333228010C0606
:0E01A800008443554E5400C552505300FFFFD3
:1006000000010000000A00000064000000E8030090
:100610000010270000A086010040420F008096983D
:100620000000E1F50500CA9A3B00803FCDCC3DD7E4
:10063000233C12833AB7D138C62737388635C0D61F
:1006400033CC2B32708930E7DB2EE53C1E42A20D05
:1006500000803F00204100C842007A44401C4650C0
:10066000C34724744997184BBCBE4C6B6E4E0315A0
:100670005079AD60F349710000FFFF0100020001F5
:100680000000000200FFFFFFFF0200000001000267
:10069000000100FFFF000000048000252A2E2A67C9
:1006A0000000FFFF000E01012F6F000E01012E6FF1
:1006B0000101010E01012D6F01010D0E01012C6FD1
:1006C0009BEF0DF001014351250AD8B409D009C1AF
:1006D000D9FF0AC1DAFF010143C1DFFF95EF0DF039
:1006E000000E0101346F000E0101336F000E010195
:1006F000366F000E0101356F01010BC1F6FF0101DC
:100700000CC1F7FF0800FFFFF5507EEC1FF0D8A0EA
:100710004AD0000E0101346F000E0101336F33C166
:10072000ADF034C1AEF0000E0001B06F0A0E000152
:10073000AF6F0CEC1FF00001ADC033F10001AEC093
:1007400034F1D00E0101146FFF0E156F01010BC1C2
:10075000F6FF01010CC1F7FF0800FFFFF550010192
:10076000166F176B01011451010116270101155174
:10077000010117230101165101013327010117510E
:100780000101342301010B4B0C2B01010BC1F6FFBE
:1007900001010CC1F7FF0800FFFFF5507EEC1FF0D0
:1007A000D8A020D0BCD701010BC1F6FF01010CC1BC
:1007B000F7FF0800FFFFF5502A0AD8A413D02CC178
:1007C000D9FF2DC1DAFF0101DECF33F10101DDCF09
:1007D00034F1020E01012C27000E01012D2301012D
:1007E0000B4B0C2B01010BC1F6FF01010CC1F7FFF4
:1007F0000800FFFFF5502E0AD8A461D00101368D04
:1008000001010B4B0C2B01010BC1F6FF01010CC1C7
:10081000F7FF0800FFFFF5502A0AD8A414D02CC116
:10082000D9FF2DC1DAFF0101DECF41F10101DDCF9A
:1008300042F1020E01012C27000E01012D230101BE
:100840000B4B0C2B48D0000E0101426F000E010132
:10085000416F27D041C1ADF042C1AEF0000E0001A2
:10086000B06F0A0E0001AF6F0CEC1FF001010BC15D
:10087000F6FF01010CC1F7FF0800FFFFF550000172
:10088000AD27000E0001AE23D00E0001AD25010101
:10089000416FFF0E0001AE210101426F01010B4BC0
:1008A0000C2B01010BC1F6FF01010CC1F7FF080081
:1008B000FFFFF5507EEC1FF0D8A00DD0CBD7000E77
:1008C0000101426F000E0101416F0101368903D021
:1008D0000101368319D001010BC1F6FF01010CC1E2
:1008E000F7FF01010B4B0C2B0800FFFF0101F5CFB7
:1008F00043F101014351000AD8B4ADEF0DF0670A8E
:10090000D8B4E6D79BEF0DF0070E01013615D8B429
:10091000CDEF0CF0010136A906D0000E0101426FA7
:10092000060E0101416F2CC1D9FF2DC1DAFF010173
:10093000DECF3EF10101DECF3FF10101DDCF40F11D
:10094000030E01012C27000E01012D23010140514E
:10095000800A800F07E1000E01013F5D03E1000EF8
:1009600001013E5DD8B011D03EC1B7F03FC1B8F033
:1009700040C1B9F063EC1FF0B7C03EF1B8C03FF121
:10098000B9C040F1030E01013513000E01013D6FA6
:10099000000E01013C6F7F0E0101401501013F1166
:1009A00001013E11D8B4AAD0820E0101146FFF0ECE
:1009B000156F01013EC116F101013FC117F101019F
:1009C00040C118F1010141C119F1100E06D0010119
:1009D000D8901933183317331633E82EF8D701019E
:1009E00016510101142501013C6F000E0101152172
:1009F00001013D6F01013C07D8A03D073CC1ADF0AE
:100A00003DC1AEF0000E0001B06F030E0001AF6FEC
:100A10000CEC1FF00001ADC03CF10001AEC03DF197
:100A20003CC1A5F03DC1A6F0000E0001A86F0A0E62
:100A30000001A76FD4EC1AF00001A5C03CF1000141
:100A4000A6C03DF101013D51800AF36E800EF35CBA
:100A5000000ED8B43C5DD8B004D001013C07D8A04A
:100A60003D0701013C510008B9EC0DF0C9C030F15F
:100A7000CAC031F1CBC032F130C1BAF031C1BBF0E4
:100A800032C1BCF03EC1BDF03FC1BEF040C1BFF0BD
:100A90001BEC17F0BAC030F1BBC031F1BCC032F171
:100AA00030C100F131C101F132C102F1000E01018A
:100AB000036F800E0101046F3F0E0101056F20ECF2
:100AC0001CF0D8B005D001013C07D8A03D0716D0D6
:100AD00030C100F131C101F132C102F1000E01015A
:100AE000036F200E0101046F410E0101056F20EC20
:100AF0001CF0D8A003D001013C4B3D2B01013D511E
:100B0000800AF36E800EF35C010ED8B43C5DD8B061
:100B100004D0010E0101436F02D03CC143F1010139
:100B200036A336D301013D51800A810FFC0ED8B4A3
:100B30003C5DD8A010D001013D51800A0101146F25
:100B40000101415101013C5D01014251800A010155
:100B50001459D8A01DD3010142514111D8B407D076
:100B6000010136A304D001014107D8A04207090EB4
:100B70000101415D000E01014259D8A004D0080EC8
:100B80000101436F02D041C143F17F0E01014015C5
:100B900001013F1101013E11D8B40DD13EC1D0F089
:100BA0003FC1D1F040C1D2F0010143510008010121
:100BB0003C25B9EC0DF0C9C0D3F0CAC0D4F0CBC00D
:100BC000D5F020EC19F0D0C03EF1D1C03FF1D2C039
:100BD00040F13EC1D6F03FC1D7F040C1D8F03EC190
:100BE0009FF03FC1A0F040C1A1F079EC18F09FC088
:100BF000AEF0A0C0AFF0A1C0B0F0A2C0B1F0EEEC7A
:100C00001DF0AEC0B7F0AFC0B8F0B0C0B9F063EC43
:100C10001FF0B7C0D3F0B8C0D4F0B9C0D5F013EC12
:100C200012F0D3C000F1D4C001F1D5C002F1000E22
:100C30000101036F000E0101046F3F0E0101056FFA
:100C400020EC1CF0D8A017D03EC1D3F03FC1D4F0A7
:100C500040C1D5F0000E0001D66F000E0001D76F25
:100C60003F0E0001D86F13EC12F0D3C03EF1D4C098
:100C70003FF1D5C040F1010143C114F10101156BF1
:100C800014BF15070101D890143715370101D8900A
:100C900014371537040E01011427000E1523010E19
:100CA00001011425F66E060E1521F76E3EC19FF068
:100CB0003FC1A0F040C1A1F079EC18F09FC016F13F
:100CC000A0C017F1A1C018F1A2C019F10900FFFFDF
:100CD000F5500101165D0900FFFFF5501759090095
:100CE000FFFFF55018590900FFFFF5501959D8A01A
:100CF0001BD03EC1BAF03FC1BBF040C1BCF0CD0E2D
:100D00000001BD6FCC0E0001BE6F3D0E0001BF6F34
:100D10001BEC17F0BAC03EF1BBC03FF1BCC040F1C4
:100D200001013C4B3D2B47D001014351040D010E05
:100D3000F324F66E060EF420F76E3EC19FF03FC11D
:100D4000A0F040C1A1F079EC18F09FC014F1A0C050
:100D500015F1A1C016F1A2C017F10900FFFFF5506F
:100D60000101145D0900FFFFF55015590900FFFF4F
:100D7000F55016590900FFFFF5501759D8B01BD090
:100D80003EC1BAF03FC1BBF040C1BCF0000E000153
:100D9000BD6F200E0001BE6F410E0001BF6F1BEC46
:100DA00017F0BAC03EF1BBC03FF1BCC040F1010139
:100DB0003C07D8A03D07050E010141250101146F34
:100DC000000E010142210101156F010114510101C1
:100DD000335F010115510101345B030E010135152B
:100DE0000101146F000E010136150101156F01019B
:100DF00015511411D8B411D00CD009C1D9FF0AC1B2
:100E0000DAFF200EDF6E0101094B0A2B01012E4B88
:100E10002F2B01013307D8A0340701013451800A78
:100E2000F36E800EF35C010ED8B4335DD8B0E5D715
:100E3000030E010135150101146F000E0101361575
:100E40000101156F010115511411D8B40CD009C15D
:100E5000D9FF0AC1DAFF2D0EDF6E0101094B0A2B03
:100E600001012E4B2F2B3EC19FF03FC1A0F040C18E
:100E7000A1F079EC18F09FC037F1A0C038F1A1C003
:100E800039F1A2C03AF137C19FF038C1A0F039C1A1
:100E9000A1F03AC1A2F001014351040D010EF32467
:100EA000F66E060EF420F76E0900FFFF0001F5CF85
:100EB000A3F00900FFFF0001F5CFA4F00900FFFF38
:100EC0000001F5CFA5F00A00FFFF0001F5CFA6F065
:100ED000B4EC1BF09FC014F1A0C015F1A1C016F135
:100EE000A2C017F101011451300F09C1D9FF0AC185
:100EF000DAFFDF6E0101094B0A2B01012E4B2F2B6C
:100F000037C19FF038C1A0F039C1A1F03AC1A2F0B9
:100F100001014351040D010EF324F66E060EF42078
:100F2000F76E0900FFFF0001F5CFA3F00900FFFFF6
:100F30000001F5CFA4F00900FFFF0001F5CFA5F0F7
:100F40000A00FFFF0001F5CFA6F046EC1DF09FC0A0
:100F500037F1A0C038F1A1C039F1A2C03AF10101C6
:100F600042514111D8B4B6D009C1D9FF0AC1DAFF44
:100F70002E0EDF6E0101094B0A2B01012E4B2F2B88
:100F8000010143510101415F000E010143BFFF0E0A
:100F90000101425B83D0010136A314D001013A5113
:100FA000371138113911D8A40DD0000E0101436F4B
:100FB000010143510101416F0101426B010141BF38
:100FC000420783D037C19FF038C1A0F039C1A1F0EA
:100FD0003AC1A2F001014351040D010EF324F66E53
:100FE000060EF420F76E0900FFFF0001F5CFA3F015
:100FF0000900FFFF0001F5CFA4F00900FFFF000189
:10100000F5CFA5F00A00FFFF0001F5CFA6F0B4EC84
:101010001BF09FC014F1A0C015F1A1C016F1A2C031
:1010200017F101011451300F09C1D9FF0AC1DAFFCC
:10103000DF6E0101094B0A2B01012E4B2F2B37C10B
:101040009FF038C1A0F039C1A1F03AC1A2F001016E
:101050004351040D010EF324F66E060EF420F76ED4
:101060000900FFFF0001F5CFA3F00900FFFF000119
:10107000F5CFA4F00900FFFF0001F5CFA5F00A00AD
:10108000FFFF0001F5CFA6F046EC1DF09FC037F141
:10109000A0C038F1A1C039F1A2C03AF10101430763
:1010A00001014329D8B411D076D709C1D9FF0AC1AB
:1010B000DAFF300EDF6E0101094B0A2B01012E4BC6
:1010C0002F2B01014107D8A04207010142514111D4
:1010D000D8A4EBD709C1D9FF0AC1DAFF650EDF6ECC
:1010E0000101094B0A2B01012E4B2F2B01013D5110
:1010F000800AF36E800EF35C000ED8B43C5DD8B06D
:101100000CD001013C6D01013D1FD8B03D2B09C140
:10111000D9FF0AC1DAFF2D0E05D009C1D9FF0AC1D6
:10112000DAFF2B0EDF6E0101094B0A2B01012E4B5A
:101130002F2B3CC1A5F03DC1A6F0000E0001A86F09
:101140000A0E0001A76FD4EC1AF00001A551300F70
:1011500009C1D9FF0AC1DAFFDF6E0101094B0A2B71
:1011600001012E4B2F2B3CC19FF03DC1A0F0000E82
:101170000001A26F0A0E0001A16F8CEC1CF00001AF
:101180009F51300F09C1D9FF0AC1DAFF94EF0DF06A
:10119000010136A320D101013D51800AF36E800E7A
:1011A000F35C000ED8B43C5DD8B012D0010E010142
:1011B0003C250101146F000E01013D210101156F55
:1011C000010114510101415F010115510101425B0F
:1011D0003EC19FF03FC1A0F040C1A1F079EC18F0F2
:1011E0009FC037F1A0C038F1A1C039F1A2C03AF1D7
:1011F000000E0101436F010143510A0AD8B422D005
:1012000001014351040D010EF324F66E060EF42085
:10121000F76E0900FFFFF5500101375D0900FFFF80
:10122000F550010138590900FFFFF5500101395906
:101230000900FFFFF55001013A59D8A003D0010180
:10124000432BD9D7010143510101415F000E010138
:1012500043BFFF0E0101425B01014251800AF36E60
:10126000800EF35C0D0ED8B4415DD8B018D03EC1ED
:10127000D3F03FC1D4F040C1D5F00101415187EC1A
:1012800010F0C9C0D6F0CAC0D7F0CBC0D8F013EC6C
:1012900012F0D3C03EF1D4C03FF1D5C040F10101FE
:1012A0004151B9EC0DF0C9C029F1CAC02AF1CBC037
:1012B0002BF129C1BAF02AC1BBF02BC1BCF03EC151
:1012C000D6F03FC1D7F040C1D8F037C1AEF038C139
:1012D000AFF039C1B0F03AC1B1F0EEEC1DF0AEC0E4
:1012E000B7F0AFC0B8F0B0C0B9F063EC1FF0B7C052
:1012F000D3F0B8C0D4F0B9C0D5F013EC12F0D3C01D
:10130000BDF0D4C0BEF0D5C0BFF01BEC17F0BAC022
:1013100029F1BBC02AF1BCC02BF129C19FF02AC121
:10132000A0F02BC1A1F079EC18F09FC037F1A0C05C
:1013300038F1A1C039F1A2C03AF122D037C19FF0F3
:1013400038C1A0F039C1A1F03AC1A2F00A0E0001E3
:10135000A36F000E0001A46F000E0001A56F000E28
:101360000001A66FB4EC1BF09FC037F1A0C038F1AC
:10137000A1C039F1A2C03AF101014107D8A042074A
:10138000010142514111D8B449D037C19FF038C151
:10139000A0F039C1A1F03AC1A2F00A0E0001A36F7A
:1013A000000E0001A46F000E0001A56F000E0001E9
:1013B000A66F46EC1DF09FC014F1A0C015F1A1C0AE
:1013C00016F1A2C017F101011751141115111611D0
:1013D000D8A424D0B3D701014251800AF36E800E05
:1013E000F35C0D0ED8B4415DD8B018D03EC1D3F037
:1013F0003FC1D4F040C1D5F00101415187EC10F05C
:10140000C9C0D6F0CAC0D7F0CBC0D8F013EC12F0E8
:10141000D3C03EF1D4C03FF1D5C040F101013D51F0
:10142000800AF36E800EF35C0A0ED8B43C5DD8B02F
:1014300029D07F0E0101401501013F1101013E112C
:10144000D8B46FD03EC19FF03FC1A0F040C1A1F021
:1014500079EC18F09FC014F1A0C015F1A1C016F1ED
:10146000A2C017F101011751141115111611D8A4BA
:1014700058D001013D51800A800F020ED8B43C5D66
:10148000D8A04FD030C100F131C101F132C102F119
:10149000700E0101036F890E0101046F400E0101FE
:1014A000056F20EC1CF0D8B003D00101F70E02D07C
:1014B0000101F80E01013C27FF0E01013D2301014E
:1014C0003C51B9EC0DF0C9C030F1CAC031F1CBC00C
:1014D00032F13EC19FF03FC1A0F040C1A1F030C148
:1014E000A2F031C1A3F032C1A4F04EEC16F09FC0BF
:1014F0001DF1A0C01EF1A1C01FF1A2C020F11DC1AD
:1015000037F11EC138F11FC139F120C13AF1000E87
:1015100001013E6F000E01013F6F000E0101406F9F
:1015200034D03EC19FF03FC1A0F040C1A1F079ECA2
:1015300018F09FC037F1A0C038F1A1C039F1A2C0A6
:101540003AF13EC100F13FC101F140C102F137C1A2
:10155000AEF038C1AFF039C1B0F03AC1B1F0EEEC45
:101560001DF0AEC003F1AFC004F1B0C005F1AFECA7
:101570001EF000C13EF101C13FF102C140F1000E79
:1015800001013D6F000E01013C6F010E0101436F2F
:10159000010143510A0AD8B422D001014351040D7C
:1015A000010EF324F66E060EF420F76E0900FFFF1D
:1015B000F5500101375D0900FFFFF5500101385971
:1015C0000900FFFFF550010139590900FFFFF550EF
:1015D00001013A59D8A003D00101432BD9D7010109
:1015E00043C114F10101156B14BF150701014151ED
:1015F00001011427010142510101152301013C5150
:101600000101142701013D5101011523010114516C
:101610000101335F010115510101345B01014251A8
:101620004111D8B404D001013307D8A03407030E08
:10163000010135150101146F000E0101361501017C
:10164000156F010115511411D8B411D00CD009C176
:10165000D9FF0AC1DAFF200EDF6E0101094B0A2B08
:1016600001012E4B2F2B01013307D8A034070101B4
:101670003451800AF36E800EF35C010ED8B4335DF2
:10168000D8B0E5D7030E010135150101146F000E26
:10169000010136150101156F010115511411D8B45E
:1016A00061D009C1D9FF0AC1DAFF2D0E54D037C16C
:1016B0009FF038C1A0F039C1A1F03AC1A2F00101F8
:1016C0004351040D010EF324F66E060EF420F76E5E
:1016D0000900FFFF0001F5CFA3F00900FFFF0001A3
:1016E000F5CFA4F00900FFFF0001F5CFA5F00A0037
:1016F000FFFF0001F5CFA6F0B4EC1BF09FC021F175
:10170000A0C022F1A1C023F1A2C024F121C19FF009
:1017100022C1A0F023C1A1F024C1A2F00A0E000151
:10172000A36F000E0001A46F000E0001A56F000E54
:101730000001A66F46EC1DF09FC021F1A0C022F170
:10174000A1C023F1A2C024F101012151300F09C130
:10175000D9FF0AC1DAFFDF6E0101094B0A2B010133
:101760002E4B2F2B0101430701014329D8B411D07F
:101770009ED709C1D9FF0AC1DAFF300EDF6E010121
:10178000094B0A2B01012E4B2F2B01013C07D8A03E
:101790003D0701013D51800AF36E800EF35C010E9E
:1017A000D8B43C5DD8B0E5D701014251800A800F22
:1017B000090ED8B4415DD8A004D0080E0101436FD2
:1017C00002D041C143F1010143510101415F000ECB
:1017D000010143BFFF0E0101425B01014351D8B437
:1017E0000CD009C1D9FF0AC1DAFF2E0EDF6E01014C
:1017F000094B0A2B01012E4B2F2B01014351B9EC50
:101800000DF0C9C01AF1CAC01BF1CBC01CF13EC11A
:10181000BDF03FC1BEF040C1BFF01AC1BAF01BC15C
:10182000BBF01CC1BCF01BEC17F0BAC09FF0BBC0F2
:10183000A0F0BCC0A1F079EC18F09FC037F1A0C0B7
:1018400038F1A1C039F1A2C03AF18AD037C19FF076
:1018500038C1A0F039C1A1F03AC1A2F00101435151
:10186000040D010EF324F66E060EF420F76E090047
:10187000FFFF0001F5CFA3F00900FFFF0001F5CF46
:10188000A4F00900FFFF0001F5CFA5F00A00FFFF5B
:101890000001F5CFA6F0B4EC1BF09FC025F1A0C06D
:1018A00026F1A1C027F1A2C028F125C19FF026C1D1
:1018B000A0F027C1A1F028C1A2F00A0E0001A36F79
:1018C000000E0001A46F000E0001A56F000E0001C4
:1018D000A66F46EC1DF09FC025F1A0C026F1A1C067
:1018E00027F1A2C028F101012551300F09C1D9FF0C
:1018F0000AC1DAFFDF6E0101094B0A2B01012E4BF1
:101900002F2B37C19FF038C1A0F039C1A1F03AC1E7
:10191000A2F001014351040D010EF324F66E060EF0
:10192000F420F76E0900FFFF0001F5CFA3F00900D6
:10193000FFFF0001F5CFA4F00900FFFF0001F5CF84
:10194000A5F00A00FFFF0001F5CFA6F046EC1DF060
:101950009FC037F1A0C038F1A1C039F1A2C03AF15F
:101960000101430701014329D8B411D06FD709C140
:10197000D9FF0AC1DAFF300EDF6E0101094B0A2BD5
:1019800001012E4B2F2B01014107D8A04207010175
:1019900042514111D8B4CFD0EAD70101425141118F
:1019A000D8A40AD001013A51371138113911D8A4FD
:1019B00003D00101414B422B800E010143BF7F0E3A
:1019C0000101146F010141510101435D01014251C7
:1019D000800A01011459D8B003D041C143F11AD093
:1019E00001014251800A0101146F010143510101BB
:1019F000415D800E010143BF7F0E01011459D8B033
:101A000009D0010143510101416F0101426B010104
:101A100041BF4207010134513311D8B413D0030E32
:101A2000010135150101146F000E01013615010188
:101A3000156F010115511411D8B404D001013307F9
:101A4000D8A03407010136AD1FD001014251800AF0
:101A50000101146F010133510101415D0101345154
:101A6000800A01011459D8B009D001014151010186
:101A7000335F010142510101345B06D0000E0101C8
:101A8000346F000E0101336F800E010143BF7F0EE2
:101A90000101146F010133510101435D0101345112
:101AA000800A01011459D8B00BD001014351010142
:101AB000335F000E010143BFFF0E0101345B06D00E
:101AC000000E0101346F000E0101336F010134512A
:101AD0003311D8B415D009C1D9FF0AC1DAFF200EDD
:101AE000DF6E0101094B0A2B01012E4B2F2B010147
:101AF0003307D8A03407010134513311D8A4EBD7F0
:101B0000030E010135150101146F000E0101361598
:101B10000101156F010115511411D8B40CD009C180
:101B2000D9FF0AC1DAFF2D0EDF6E0101094B0A2B26
:101B300001012E4B2F2B01010BC1F6FF01010CC13E
:101B4000F7FF01010B4B0C2B0800FFFF0101F5CF44
:101B500043F10101436762EF03F009C1D9FF0AC1F4
:101B6000DAFF000EDF6E2EC109F12FC10AF112005B
:101B7000FFFFFFFF0001CF6F0001CFAF60D1000179
:101B8000CF6D0001CF51800A120FD8A0C9D0000E2E
:101B90000001B06F030E0001AF6F000E0001A86FCF
:101BA0000A0E0001A76F000E0001A26F640E000173
:101BB000A16F0001CF5100019F6F0001A06B0001D8
:101BC0009FBFA0078CEC1CF000019FC0A5F0000196
:101BD000A0C0A6F0D4EC1AF0090E0001A525000162
:101BE000AD6F000E0001A6210001AE6F0CEC1FF0DE
:101BF000290E0001AD25F66E060E0001AE21F76E2E
:101C00000900FFFF0001F5CFBDF00900FFFF000153
:101C1000F5CFBEF00A00FFFF0001F5CFBFF0000EC8
:101C20000001A86F640E0001A76F0001CF510001F1
:101C3000A56F0001A66B0001A5BFA607D4EC1AF0A2
:101C4000120E0001A5250001AD6F000E0001A621B6
:101C50000001AE6F000E0001B06F030E0001AF6F08
:101C60000CEC1FF0290E0001AD25F66E060E0001EA
:101C7000AE21F76E0900FFFF0001F5CFBAF00900B1
:101C8000FFFF0001F5CFBBF00A00FFFF0001F5CF19
:101C9000BCF01BEC17F0BAC0CCF0BBC0CDF0BCC0A0
:101CA000CEF0CCC0BAF0CDC0BBF0CEC0BCF0000EC0
:101CB0000001B06F030E0001AF6F000E0001A26FB4
:101CC0000A0E0001A16F0001CF5100019F6F0001BA
:101CD000A06B00019FBFA0078CEC1CF000019FC00F
:101CE000ADF00001A0C0AEF00CEC1FF0290E000119
:101CF000AD25F66E060E0001AE21F76E0900FFFF5E
:101D00000001F5CFBDF00900FFFF0001F5CFBEF0E7
:101D10000A00FFFF0001F5CFBFF01BEC17F0D6D192
:101D20000001CF51800A750FD8A073D0000E0001BA
:101D3000A86F0A0E0001A76F0001CF510001A56F27
:101D40000001A66B0001A5BFA607D4EC1AF0090E8E
:101D50000001A5250001AD6F000E0001A6210001C4
:101D6000AE6F000E0001B06F030E0001AF6F0CEC00
:101D70001FF0290E0001AD25F66E060E0001AE2102
:101D8000F76E0900FFFF0001F5CFBAF00900FFFF71
:101D90000001F5CFBBF00A00FFFF0001F5CFBCF05A
:101DA000000E0001B06F030E0001AF6F000E0001C6
:101DB000A26F0A0E0001A16F0001CF5100019F6FB9
:101DC0000001A06B00019FBFA0078CEC1CF000017C
:101DD0009FC0ADF00001A0C0AEF00CEC1FF0290ECA
:101DE0000001AD25F66E060E0001AE21F76E09006A
:101DF000FFFF0001F5CFBDF00900FFFF0001F5CFA7
:101E0000BEF00A00FFFF0001F5CFBFF01BEC17F09A
:101E10005DD10001CF51030D290EF324F66E060E9D
:101E2000F420F76E0900FFFF0001F5CFC9F00900AB
:101E3000FFFF0001F5CFCAF00A00FFFF63D10001E8
:101E4000CF51800A120FD8A0C9D0000E0001B06F88
:101E5000030E0001AF6F000E0001A86F0A0E000113
:101E6000A76F000E0001A26F640E0001A16F0001B8
:101E7000CF5100019F6F0001A06B00019FBFA00721
:101E80008CEC1CF000019FC0A5F00001A0C0A6F0E2
:101E9000D4EC1AF0090E0001A5250001AD6F000E6B
:101EA0000001A6210001AE6F0CEC1FF0500E0001E6
:101EB000AD25F66E060E0001AE21F76E0900FFFF9C
:101EC0000001F5CFBDF00900FFFF0001F5CFBEF026
:101ED0000A00FFFF0001F5CFBFF0000E0001A86F60
:101EE000640E0001A76F0001CF510001A56F000132
:101EF000A66B0001A5BFA607D4EC1AF0120E0001D4
:101F0000A5250001AD6F000E0001A6210001AE6FF6
:101F1000000E0001B06F030E0001AF6F0CEC1FF05C
:101F2000500E0001AD25F66E060E0001AE21F76ED3
:101F30000900FFFF0001F5CFBAF00900FFFF000123
:101F4000F5CFBBF00A00FFFF0001F5CFBCF01BECA2
:101F500017F0BAC0CCF0BBC0CDF0BCC0CEF0CCC046
:101F6000BAF0CDC0BBF0CEC0BCF0000E0001B06F27
:101F7000030E0001AF6F000E0001A26F0A0E0001F8
:101F8000A16F0001CF5100019F6F0001A06B000104
:101F90009FBFA0078CEC1CF000019FC0ADF00001BA
:101FA000A0C0AEF00CEC1FF0500E0001AD25F66E97
:101FB000060E0001AE21F76E0900FFFF0001F5CF0C
:101FC000BDF00900FFFF0001F5CFBEF00A00FFFFE2
:101FD0000001F5CFBFF01BEC17F078D00001CF5116
:101FE000800A750FD8A079D0000E0001A86F0A0EE4
:101FF0000001A76F0001CF510001A56F0001A66B82
:102000000001A5BFA607D4EC1AF0090E0001A52512
:102010000001AD6F000E0001A6210001AE6F000EA1
:102020000001B06F030E0001AF6F0CEC1FF0500EFB
:102030000001AD25F66E060E0001AE21F76E090017
:10204000FFFF0001F5CFBAF00900FFFF0001F5CF57
:10205000BBF00A00FFFF0001F5CFBCF0000E00014D
:10206000B06F030E0001AF6F000E0001A26F0A0EE9
:102070000001A16F0001CF5100019F6F0001A06B13
:1020800000019FBFA0078CEC1CF000019FC0ADF0C9
:102090000001A0C0AEF00CEC1FF0500E0001AD2509
:1020A000F66E060E0001AE21F76E0900FFFF00017B
:1020B000F5CFBDF00900FFFF0001F5CFBEF00A002B
:1020C000FFFF0001F5CFBFF01BEC17F0BAC0C9F05D
:1020D000BBC0CAF0BCC0CBF018D00001CF51030D7B
:1020E000500EF324F66E060EF420F76E0900FFFF83
:1020F0000001F5CFC9F00900FFFF0001F5CFCAF0DC
:102100000A00FFFF0001F5CFCBF01200FFFFFFFF39
:102110000001D26F6D0E0001D265D4D0000E000117
:10212000B06F030E0001AF6F000E0001A86F0A0E22
:102130000001A76F000E0001A26F640E0001A16FE5
:102140000001D2C09FF00001A06B8CEC1CF00001DC
:102150009FC0A5F00001A0C0A6F0D4EC1AF0090EB3
:102160000001A5250001AD6F000E0001A6210001B0
:10217000AE6F0CEC1FF0290E0001AD25F66E060EB9
:102180000001AE21F76E0900FFFF0001F5CFBDF0A1
:102190000900FFFF0001F5CFBEF00A00FFFF0001BC
:1021A000F5CFBFF0000E0001A86F640E0001A76F0D
:1021B0000001D2C0A5F00001A66BD4EC1AF0120EFB
:1021C0000001A5250001AD6F000E0001A621000150
:1021D000AE6F000E0001B06F030E0001AF6F0CEC8C
:1021E0001FF0290E0001AD25F66E060E0001AE218E
:1021F000F76E0900FFFF0001F5CFBAF00900FFFFFD
:102200000001F5CFBBF00A00FFFF0001F5CFBCF0E5
:102210001BEC17F0BAC0CFF0BBC0D0F0BCC0D1F0FF
:10222000000E0001B06F030E0001AF6F000E000141
:10223000A26F0A0E0001A16F0001D2C09FF0000141
:10224000A06B8CEC1CF000019FC0ADF00001A0C0A1
:10225000AEF00CEC1FF0290E0001AD25F66E060E57
:102260000001AE21F76E0900FFFF0001F5CFBDF0C0
:102270000900FFFF0001F5CFBEF00A00FFFF0001DB
:10228000F5CFBFF0CFC0BAF0D0C0BBF0D1C0BCF02A
:102290001BEC17F0BAC0CCF0BBC0CDF0BCC0CEF088
:1022A000CCC0BAF0CDC0BBF0CEC0BCF0000E000177
:1022B000BD6F000E0001BE6F3F0E0001BF6F1BEC33
:1022C00017F0A9D00A0E0001D26582D0000E0001DD
:1022D000B06F030E0001AF6F000E0001A26F0A0E77
:1022E0000001A16F0001D2C09FF00001A06B8CEC37
:1022F0001CF000019FC0ADF00001A0C0AEF00CECDE
:102300001FF0290E0001AD25F66E060E0001AE216C
:10231000F76E0900FFFF0001F5CFBDF00900FFFFD8
:102320000001F5CFBEF00A00FFFF0001F5CFBFF0BE
:10233000000E0001A86F0A0E0001A76F0001D2C0B5
:10234000A5F00001A66BD4EC1AF0090E0001A5253A
:102350000001AD6F000E0001A6210001AE6F000E5E
:102360000001B06F030E0001AF6F0CEC1FF0290EDF
:102370000001AD25F66E060E0001AE21F76E0900D4
:10238000FFFF0001F5CFBAF00900FFFF0001F5CF14
:10239000BBF00A00FFFF0001F5CFBCF01BEC17F00B
:1023A000BAC0CFF0BBC0D0F0BCC0D1F0CFC0BAF043
:1023B000D0C0BBF0D1C0BCF0000E0001BD6F000E5C
:1023C0000001BE6F3F0E0001BF6F1BEC17F023D062
:1023D0000001D251030D290EF324F66E060EF420EF
:1023E000F76E0900FFFF0001F5CFBAF00900FFFF0B
:1023F0000001F5CFBBF00A00FFFF0001F5CFBCF0F4
:10240000000E0001BD6F000E0001BE6F3F0E000107
:10241000BF6F1BEC17F0BAC0C9F0BBC0CAF0BCC09C
:10242000CBF01200FFFFFFFF0001D5C0D9F0000183
:10243000DA6BDB6B0001D4350001D93701E3DA81B7
:102440000001D9510001DE6F0001D8C0D9F00001B0
:10245000DA6BDB6B0001D7350001D93701E3DA8194
:102460000001D9510001DD6F0001DE51D8B412D056
:102470000001DD510001DE5DD8B013D00001DE5156
:1024800000080001DD250001D96F190E0001D95D9A
:10249000D8A007D0D6C0D3F0D7C0D4F0D8C0D5F0DC
:1024A00002D10001DD51D8B412D00001DE5100018B
:1024B000DD5DD8B013D00001DD5100080001DE253C
:1024C0000001D96F190E0001D95DD8A007D0D3C083
:1024D000D3F0D4C0D4F0D5C0D5F0E5D0060E0001BD
:1024E000DC6F0001D5AF02D00001DC8F0001D8AF56
:1024F00002D00001DC8D0001D48FFF0E0001D31744
:10250000FF0E0001D417000E0001D5170001D78F70
:10251000FF0E0001D617FF0E0001D717000E0001B5
:10252000D8170001DD510001DE5DD8B02AD00001CE
:10253000D8900001D6370001D7370001D837000105
:10254000DD070001DD510001DE19D8B414D000010F
:10255000DC07DCC0D9F0070E0001D917D8B40BD0C6
:10256000E6D70001D8900001D5330001D433000133
:10257000D3330001DE2B0001DD510001DE63F1D712
:102580002FD00001DE510001DD5DD8B029D000015F
:10259000D8900001D3370001D4370001D5370001AE
:1025A000DE070001DD510001DE19D8B414D00001AE
:1025B000DC07DCC0D9F0070E0001D917D8B40BD066
:1025C000E6D70001D8900001D8330001D7330001CD
:1025D000D6330001DD2B0001DD510001DE63F1D7B0
:1025E0000001DCAF12D0FF0E0001D31BFF0E000173
:1025F000D41BFF0E0001D51B010E0001D327000ED6
:102600000001D423000E0001D5230001DCAD12D05F
:10261000FF0E0001D61BFF0E0001D71BFF0E0001AD
:10262000D81B010E0001D627000E0001D723000E93
:102630000001D823000E0001DC6F0001D35100011E
:10264000D6270001D4510001D7230001D551000144
:10265000D8230001D8AF15D0FF0E0001D61BFF0E06
:102660000001D71BFF0E0001D81B010E0001D62769
:10267000000E0001D723000E0001D823010E000137
:10268000DC6FD6C09FF0D7C0A0F0D8C0A1F0DEC0EC
:10269000A2F0DCC0A3F04DEC1AF09FC0D3F0A0C0B4
:1026A000D4F0A1C0D5F01200FFFFFFFF81AA03D034
:1026B0002E6A2E2A01D02E6A2E50366E376A81A8D5
:1026C00003D02E6A2E2A01D02E6A2E50386E396A17
:1026D00052C02EF053C02FF0D8902E362F365450C3
:1026E0002E24326E55502F20336E36C02EF037C058
:1026F0002FF0D8902E362F3638502E24346E395085
:102700002F20356E32C02EF033C02FF0D8902E36E9
:102710002F36D8902E362F3634502E2635502F2275
:10272000D8902E362F36770E2E24F66E060E2F20DA
:10273000F76E0900FFFFF5CF3AF00A00FFFFF5CF73
:102740003BF03A50020A3B10D8A405D058C03AF0EA
:1027500059C03BF008D036C052F037C053F038C0F3
:1027600054F039C055F03A043B10D8A403D0564A6F
:10277000572A07D03A28D8B43B28D8A402D0504AC8
:10278000512A990EF66E060EF76E0900FFFFF5CF7F
:102790002EF00900FFFFF5CF2FF056C030F057C0E4
:1027A00031F050503026515031222F50311802E173
:1027B0002E503018D8A4A3D05150800A2E6E5650F7
:1027C000505C5750800A2E58D8B042D080868094F2
:1027D00080924DC028F04EC029F04FC02AF0970ECD
:1027E000F66E060EF76E0900FFFFF5CF09F00A003E
:1027F000FFFFF5CF0AF066EC1EF009C010F00AC02A
:1028000011F00BC012F0990EF66E060EF76E09006D
:10281000FFFFF5CF09F00A00FFFFF5CF0AF066ECE5
:102820001EF009C00DF00AC00EF00BC00FF047EC0F
:102830001BF00DC02BF00EC02CF00FC02DF046EC9D
:102840001FF028C04DF029C04EF02AC04FF04FD0E5
:102850005750800A2E6E5050565C5150800A2E58A8
:10286000D8B042D08096808480924DC01CF04EC07B
:102870001DF04FC01EF0970EF66E060EF76E0900A3
:10288000FFFFF5CF09F00A00FFFFF5CF0AF066EC75
:102890001EF009C010F00AC011F00BC012F0990E22
:1028A000F66E060EF76E0900FFFFF5CF09F00A007D
:1028B000FFFFF5CF0AF066EC1EF009C00DF00AC06C
:1028C0000EF00BC00FF047EC1BF00DC01FF00EC058
:1028D00020F00FC021F076EC15F01CC04DF01DC0AB
:1028E0004EF01EC04FF003D0809680948092000E70
:1028F000576E000E566E000E516E000E506E3AC0AE
:1029000058F03BC059F01200FFFFFFFF00019FC0CD
:10291000A5F00001A0C0A6F00001A1C0A7F0000131
:10292000A2C0A8F0180E06D00001D890A833A73393
:10293000A633A533E82EF8D70001A5510001AE6FEC
:102940000001AE6701D0ACD00001A2C0A5F000012B
:10295000A3C0A6F00001A4C0A7F00001A5C0A8F084
:10296000180E06D00001D890A833A733A633A5339C
:10297000E82EF8D70001A5510001AD6F0001AD6749
:1029800001D08ED00001A18FFF0E00019F17FF0E16
:102990000001A017FF0E0001A117000E0001A217F1
:1029A0000001A48FFF0E0001A217FF0E0001A31764
:1029B000FF0E0001A417000E0001A517000E000174
:1029C000A96F000E0001AA6F000E0001AB6F000E90
:1029D0000001AC6F7F0E0001AE5F0001AD51A00F92
:1029E0000001AE5F200E0001AD6F0001D890000124
:1029F000A9370001AA370001AB370001AC3700014D
:102A0000A25100019F5D0001A3510001A0590001E6
:102A1000A4510001A1590001A5510001A259D8A05B
:102A200012D00001A25100019F5F0001A3510001DB
:102A3000A05B0001A4510001A15B0001A5510001B0
:102A4000A25B0001A9810001D89000019F3700011D
:102A5000A0370001A1370001A2370001AD2FC5D773
:102A60000001AEAF19D00001AE51800A0001A56F80
:102A7000E10E800A0001A55DD8A012D00001D89017
:102A80000001AC330001AB330001AA330001A933CC
:102A90000001AE3FF3D720D01F0E0001AE6519D064
:102AA000000E00019F6F000E0001A06F000E0001DC
:102AB000A16F000E0001A26F17D00001D890000195
:102AC000A9370001AA370001AB370001AC3700017C
:102AD000AE070001AE67F1D7A9C09FF0AAC0A0F071
:102AE000ABC0A1F0ACC0A2F01200FFFFFFFF1EC000
:102AF00022F0236A246A1D34223601E32380225007
:102B0000276E21C022F0236A246A2034223601E392
:102B100023802250266E2750D8B40CD02650275C34
:102B2000D8B00FD0275000082624226E190E225C40
:102B3000D8A007D01FC01CF020C01DF021C01EF07F
:102B4000ABD02650D8B40CD02750265CD8B00FD0CC
:102B5000265000082724226E190E225CD8A007D028
:102B60001CC01CF01DC01DF01EC01EF095D0060E2E
:102B7000256E1EBE258E21BE258C1D8EFF0E1C16B9
:102B8000FF0E1D16000E1E16208EFF0E1F16FF0EC6
:102B90002016000E21162650275CD8B01AD0D890E7
:102BA0001F3620362136260626502718D8B40DD0D9
:102BB000250625C022F0070E2216D8B406D0EFD77E
:102BC000D8901E321D321C32272A26502762F8D791
:102BD0001DD02750265CD8B019D0D8901C361D3691
:102BE0001E36270626502718D8B40DD0250625C036
:102BF00022F0070E2216D8B406D0EFD7D890213293
:102C000020321F32262A26502762F8D725AE0CD054
:102C1000FF0E1C1AFF0E1D1AFF0E1E1A010E1C2697
:102C2000000E1D22000E1E2225AC0CD0FF0E1F1A16
:102C3000FF0E201AFF0E211A010E1F26000E202261
:102C4000000E2122000E256E1C501F261D50202232
:102C50001E50212221AE0ED0FF0E1F1AFF0E201A89
:102C6000FF0E211A010E1F26000E2022000E212227
:102C7000010E256E1FC001F020C002F021C003F03C
:102C800027C004F025C005F0F0EC1CF001C01CF0DA
:102C900002C01DF003C01EF01200FFFFFFFF000185
:102CA000A1C0A5F00001A66BA76B0001A035000133
:102CB000A53701E3A6810001A5510001AD6F000118
:102CC000AD6701D092D00001A4C0A5F00001A66BB1
:102CD000A76B0001A3350001A53701E3A681000120
:102CE000A5510001AC6F0001AC6701D07ED000019E
:102CF000A08FFF0E00019F17FF0E0001A017000E0E
:102D00000001A1170001A38FFF0E0001A217FF0E03
:102D10000001A317000E0001A417000E0001A86F08
:102D2000000E0001A96F000E0001AA6F000E000145
:102D3000AB6F7F0E0001AD5F0001AC51980F000139
:102D4000AD5F180E0001AC6F0001D8900001A837EC
:102D50000001A9370001AA370001AB370001A251D9
:102D600000019F5D0001A3510001A0590001A45181
:102D70000001A159D8A00ED00001A25100019F5F0F
:102D80000001A3510001A05B0001A4510001A15B5F
:102D90000001A8810001D89000019F370001A037F1
:102DA0000001A1370001AC2FCFD70001ADAF19D082
:102DB0000001AD51800A0001A56FE90E800A0001F3
:102DC000A55DD8A012D00001D8900001AB3300015E
:102DD000AA330001A9330001A8330001AD3FF3D7A6
:102DE00020D0170E0001AD6519D0000E00019F6FB5
:102DF000000E0001A06F000E0001A16F000E000187
:102E0000A26F17D00001D8900001A8370001A937A0
:102E10000001AA370001AB370001AD070001AD6723
:102E2000F1D7A8C09FF0A9C0A0F0AAC0A1F0ABC084
:102E3000A2F01200FFFFFFFF0001BCC0C0F00001C4
:102E4000C16BC26B0001BB350001C03701E3C1811A
:102E50000001C0510001C36F0001C36701D013D04E
:102E60000001BFC0C0F00001C16BC26B0001BE35E4
:102E70000001C03701E3C1810001C0510001C86FEA
:102E80000001C8670AD0000E0001BA6F000E0001F1
:102E9000BB6F000E0001BC6F80D00001C8517B0FDA
:102EA0000001C327BCC0C8F00001BF510001C81B0E
:102EB000800E0001C8170001BB8F0001BE8FFF0EFE
:102EC0000001BD17FF0E0001BE17000E0001BF1765
:102ED000000E0001C46F000E0001C56F000E00015E
:102EE000C66F070E0001C76F0001BAA10CD0000128
:102EF000BD510001C4270001BE510001C5230001DE
:102F0000BF510001C6230001D8900001BC3300016D
:102F1000BB330001BA330001D8900001BD37000176
:102F2000BE370001BF370001C72FDED7090E0001F1
:102F3000C76F0001BAA10CD00001BD510001C42728
:102F40000001BE510001C5230001BF510001C6238D
:102F50000001D8900001BC330001BB330001BA333B
:102F60000001D8900001C6330001C5330001C4330D
:102F70000001C72FDED7C4C09FF0C5C0A0F0C6C0F7
:102F8000A1F0C3C0A2F0C8C0A3F04DEC1AF09FC0DE
:102F9000BAF0A0C0BBF0A1C0BCF01200FFFFFFFF61
:102FA00021EE6EF011EE52F0070EDECFE6FFE82EB6
:102FB000FCD721EE75F011EE59F0060EDECFE6FFDC
:102FC000E82EFCD721EE7BF011EE5FF0050EDECF90
:102FD000E6FFE82EFCD7EEEC1EF00101010E000129
:102FE000A16F0101520E0001A06F000E0001A36F3E
:102FF000010E0001A26F9AEC1DF00101010E00010B
:10300000A16F0101590E0001A06F000E0001A36F16
:10301000000E0001A26F9AEC1DF00101010E0001EB
:10302000A16F01015F0E0001A06F000E0001A36FF0
:10303000000E0001A26F9AEC1DF081AA04D00101DC
:10304000516B512B02D00101516B01015151526E54
:10305000536A81A804D00101516B512B02D00101A8
:10306000516B01015151546E556A000E596E000E9C
:10307000586E000E516E000E506E000E576E000E10
:10308000566E000E0101806F000E0101816F000E6F
:103090000101826F9B0ECB6EBD9ABD98040EBE6E71
:1030A000000E0001A06F000E00019F6FCFEC1FF01B
:1030B00096EC1FF029EC1FF0000E0101456FC00EC9
:1030C0000101446F000E0101476F050E0101466FBB
:1030D00080C148F181C149F182C14AF10101010E6B
:1030E00001014C6F0101640E01014B6FC5EC19F039
:1030F000E1D7FFFF0001A1C0A3F00001A46BA56B05
:103100000001A0350001A33701E3A4810001A35110
:103110000001AD6F0001AD6701D059D0170E00015D
:10312000A36F00019FC0A4F00001A0C0A5F00001A2
:10313000A1C0A6F00001A3290001A76F05D00001DE
:10314000D890A633A533A4330001A72FF8D70001E8
:10315000A4510001A86F0001A08FFF0E00019F176E
:10316000FF0E0001A017000E0001A11700019F51E2
:103170000001A96F0001A0510001AA6F0001A15137
:103180000001AB6F0001AC6B8E0E0001AD5F000162
:10319000ADAF19D00001AD51800A0001A36FF10E4F
:1031A000800A0001A35DD8A012D00001D8900001D0
:1031B000AC330001AB330001AA330001A933000195
:1031C000AD3FF3D720D0170E0001AD6519D0000E2A
:1031D00000019F6F000E0001A06F000E0001A16FA3
:1031E000000E0001A26F2AD00001D8900001A9377B
:1031F0000001AA370001AB370001AC370001AD0771
:103200000001AD67F1D70001A851D8B40FD000017B
:10321000AC1F0001AB1F0001AA1F0001A96D000E29
:103220000001AA230001AB230001AC23A9C09FF039
:10323000AAC0A0F0ABC0A1F0ACC0A2F01200FFFF8A
:10324000FFFF0001D2C0D6F00001D76BD86B0001A0
:10325000D1350001D63701E3D7810001D6510001F5
:10326000DD6F0001DD6701D013D00001D5C0D6F0BD
:103270000001D76BD86B0001D4350001D63701E3CC
:10328000D7810001D6510001DE6F0001DE670AD050
:10329000000E0001D06F000E0001D16F000E000182
:1032A000D26F71D0000E0001DA6F000E0001DB6FEB
:1032B000000E0001DC6F0001DE51890F0001DD5FAF
:1032C000D2C0DEF00001D5510001DE1B800E0001EE
:1032D000DE170001D18FFF0E0001D017FF0E000195
:1032E000D117000E0001D2170001D48FFF0E00018C
:1032F000D317FF0E0001D417000E0001D517180ECA
:103300000001D96F0001D8900001DA370001DB37E6
:103310000001DC370001D3510001D05D0001D45120
:103320000001D1590001D5510001D259D8A00ED0C9
:103330000001D3510001D05F0001D4510001D15BE5
:103340000001D5510001D25B0001DA810001D89063
:103350000001D0370001D1370001D2370001D92F49
:10336000D1D7DAC09FF0DBC0A0F0DCC0A1F0DDC097
:10337000A2F0DEC0A3F04DEC1AF09FC0D0F0A0C0C8
:10338000D1F0A1C0D2F01200FFFFFFFF01014CC13C
:103390004EF101014BC14DF1010E01014D2501011D
:1033A000096F000E01014E2101010A6F060E010195
:1033B0000C6F9B0E01010B6F46C10DF147C10EF161
:1033C000FF0E0101462501010F6FFF0E010147218C
:1033D0000101106F48C111F149C112F14AC113F145
:1033E00051EC03F0010109C14FF101010AC150F193
:1033F0004BC1D9FF4CC1DAFF010144C1DFFF01011C
:103400004751800A0001DF6F01014F510101465D04
:1034100001015051800A0001DF59D8B02CD0010EB3
:10342000010146250001DF6F000E01014721000167
:10343000E06F0001DF5101014B25D96E0001E05121
:1034400001014C21DA6E210EDF6E020E01014625CC
:103450000001DF6F000E010147210001E06F000154
:10346000DF5101014B25D96E0001E05101014C21D2
:10347000DA6E000EDF6E010100014CC1A1F0010106
:1034800000014BC1A0F0000E0001A36F000E00016F
:10349000A26F9AEC1DF01200FFFFFFFF0001A25186
:1034A000D8B408D000019F510001A0110001A11162
:1034B000D8A414D0000E00019F6F000E0001A06F71
:1034C000000E0001A16F6ED00001A22B0001D89068
:1034D0000001A1330001A03300019F33000E000161
:1034E0009F150001A46F000E0001A0150001A56F3B
:1034F000FE0E0001A1150001A66F0001A451A51147
:10350000A611D8B414D0E0D70001A22B010E0001FF
:103510009F27000E0001A023000E0001A12300013F
:10352000D8900001A1330001A03300019F33000EA9
:1035300000019F150001A46F000E0001A0150001FD
:10354000A56FFF0E0001A1150001A66F0001A45197
:10355000A511A611D8B40BD0D7D70001A20700013E
:10356000D89000019F370001A0370001A13700016A
:10357000A0AFF3D70001A2B102D00001A09F0001CB
:10358000D890A2330001A2510001A1130001A35160
:10359000D8B402D00001A18F9FC09FF0A0C0A0F0BE
:1035A000A1C0A1F01200FFFFFFFF000E0001AA6FF3
:1035B0000001A851800AF36E800EF35C000ED8B4AF
:1035C000A75DD8B009D00001A76D0001A81FD8B031
:1035D000A82B010E0001AA6F0001A651800AF36E0C
:1035E000800EF35C000ED8B4A55DD8B009D0000100
:1035F000A56D0001A61FD8B0A62B010E0001AA1BC5
:10360000000E0001AC6F000E0001AB6F0001A8516D
:10361000A711D8B42CD0010E0001A96F06D000016B
:10362000D890A737A8370001A92B0001A8AFF7D77A
:103630000001D890AB37AC370001A7510001A55D60
:103640000001A8510001A659D8A00AD00001A75135
:103650000001A55F0001A8510001A65B0001AB813C
:103660000001D890A833A7330001A92FE1D70001AA
:10367000AA51D8B406D00001AB6D0001AC1FD8B080
:10368000AC2BABC0A5F0ACC0A6F01200FFFFFFFF53
:103690000FC013F0146A156A0E34133601E3148058
:1036A00013501A6E1A6601D00CD012C013F0146AAF
:1036B000156A1134133601E3148013501B6E1B6618
:1036C00007D0000E0D6E000E0E6E000E0F6E4AD06B
:1036D000000E176E000E186E000E196E1B50890F2B
:1036E0001A5E0FC01BF012501B1A800E1B160E8E96
:1036F000FF0E0D16FF0E0E16000E0F16118EFF0E8A
:103700001016FF0E1116000E1216180E166ED89017
:1037100017361836193610500D5C11500E581250CD
:103720000F58D8A007D010500D5E11500E5A1250ED
:103730000F5A1780D8900D360E360F36162EE7D753
:1037400017C001F018C002F019C003F01AC004F04D
:103750001BC005F0F0EC1CF001C00DF002C00EF033
:1037600003C00FF01200FFFFFFFF000E0001A76F64
:10377000000E0001A86F000E0001A96F000E0001ED
:10378000AA6F0001A651A311A411A511D8B44ED05F
:10379000010E0001AB6F0CD00001D8900001A337DF
:1037A0000001A4370001A5370001A6370001AB2BAB
:1037B0000001A6AFF1D70001D8900001A7370001A2
:1037C000A8370001A9370001AA370001A351000161
:1037D0009F5D0001A4510001A0590001A551000105
:1037E000A1590001A6510001A259D8A012D0000190
:1037F000A35100019F5F0001A4510001A05B0001E3
:10380000A5510001A15B0001A6510001A25B0001CE
:10381000A7810001D8900001A6330001A533000163
:10382000A4330001A3330001AB2FC5D7A7C09FF07D
:10383000A8C0A0F0A9C0A1F0AAC0A2F01200FFFF8A
:10384000FFFF010102AF20D0010100C106F101011B
:1038500001C107F1010102C108F10101061F071FA3
:10386000081F062B000E07230823000E0101062562
:103870000101006F000E010107210101016F800E9F
:10388000010108210101026F010105AF20D00101F2
:1038900003C106F1010104C107F1010105C108F1ED
:1038A0000101061F071F081F062B000E0723082310
:1038B000000E010106250101036F000E0101072121
:1038C0000101046F800E010108210101056F000E46
:1038D0000101001B000E0101011B800E0101021BF2
:1038E000000E0101031B000E0101041B800E0101EB
:1038F000051B010103510101005D0101045101019A
:1039000001590101055101010259D8B002D0D890E6
:1039100001D0D8801200FFFFFFFF000E0001A46F4E
:103920000001A051800AF36E800EF35C000ED8B443
:103930009F5DD8B009D000019F6D0001A01FD8B0D5
:10394000A02B010E0001A46F0001A251800AF36EAA
:10395000800EF35C000ED8B4A15DD8B006D0000193
:10396000A16D0001A21FD8B0A22B0001A251A1118C
:10397000D8B426D0010E0001A36F06D00001D89064
:10398000A137A2370001A32B0001A2AFF7D7000196
:10399000A15100019F5D0001A2510001A059D8A0D2
:1039A00008D00001A15100019F5F0001A251000158
:1039B000A05B0001D890A233A1330001A32FE7D769
:1039C0000001A451D8B406D000019F6D0001A01FD2
:1039D000D8B0A02B9FC09FF0A0C0A0F01200FFFFA6
:1039E000FFFF0450D8B405D0015002100310D8A432
:1039F0000CD0000E016E000E026E000E036E44D05D
:103A0000042AD890033202320132000E0114066EED
:103A1000000E0214076EFE0E0314086E0650071007
:103A20000810D8B40CD0ECD7042A010E0126000EE1
:103A30000222000E0322D890033202320132000E1D
:103A40000114066E000E0214076EFF0E0314086EBA
:103A5000065007100810D8B406D0E6D70406D89050
:103A600001360236033602AEF9D704A0029ED89082
:103A70000432045003120550D8A4038E01C001F093
:103A800002C002F003C003F01200FFFFFFFF0001BD
:103A9000A651A311A411A511D8B442D0010E000162
:103AA000A76F0CD00001D8900001A3370001A43704
:103AB0000001A5370001A6370001A72B0001A6AF22
:103AC000F1D70001A35100019F5D0001A451000145
:103AD000A0590001A5510001A1590001A651000102
:103AE000A259D8A010D00001A35100019F5F00018E
:103AF000A4510001A05B0001A5510001A15B0001E0
:103B0000A6510001A25B0001D8900001A63300017C
:103B1000A5330001A4330001A3330001A72FD1D79F
:103B20009FC09FF0A0C0A0F0A1C0A1F0A2C0A2F0D1
:103B30001200FFFFFFFF0001A205A311D8A429D0A6
:103B4000FA0EE5EC1FF084901CD0A0C0D9FFA1C0F4
:103B5000DAFFDF500001A46F8482A4C083FF849247
:103B6000FA0EDAEC1FF00001A43BF00EA4178482D9
:103B7000A4C083FF8492FA0EDAEC1FF00001A04B80
:103B8000A12BA0C0D9FFA1C0DAFFDF50D8B424D048
:103B9000DCD784901AD0A0C0D9FFA1C0DAFFDF50D3
:103BA0000001A46F8482A4C083FF84920001A43B1F
:103BB000F00EA4178482A4C083FF84920A0EC3EC83
:103BC0001FF084800001A04BA12BA0C0D9FFA1C091
:103BD000DAFFDF50D8A4DFD71200FFFFFFFF8E0E01
:103BE0000001B66F0CD00001D8900001B133000184
:103BF000B0330001AF330001AE330001B62B000E2D
:103C00000001AE150001B26F000E0001AF150001FA
:103C1000B36F000E0001B0150001B46FFF0E00017C
:103C2000B1150001B56F0001B551B211B311B41156
:103C3000D8A4D9D7AEC09FF0AFC0A0F0B0C0A1F05B
:103C4000B6C0A2F0000E0001A36F4DEC1AF09FC0A9
:103C5000AEF0A0C0AFF0A1C0B0F01200FFFFFFFFB8
:103C6000E9CF93F0EACF94F0E1CF95F0E2CF96F070
:103C7000D9CF97F0DACF98F0F3CF99F0F4CF9AF04C
:103C8000F6CF9BF0F7CF9CF0F8CF9DF0F5CF9EF0EC
:103C90009EC0F5FF9DC0F8FF9CC0F7FF9BC0F6FFDC
:103CA0009AC0F4FF99C0F3FF98C0DAFF97C0D9FF1C
:103CB00096C0E2FF95C0E1FF94C0EAFF93C0E9FF20
:103CC00092C0FBFF91C0FAFF1100FFFFFFFF000E43
:103CD0000C6E0A50800AF36E800EF35C000ED8B4AE
:103CE000095CD8B006D0096C0A1ED8B00A2A010EA9
:103CF0000C6E09C001F00AC002F0036A8E0E046E59
:103D00000CC005F0F0EC1CF001C009F002C00AF094
:103D100003C00BF01200FFFFFFFF0650800A800F68
:103D200005E1000E055C02E1000E045CD8B00FD086
:103D300004C001F005C002F006C003F0AEEC1FF0B5
:103D400001C004F002C005F003C006F006D004C0B4
:103D500004F005C005F006C006F01200FFFFFFFFEB
:103D6000000E0101031B000E0101041B800E010166
:103D7000051B00C1D3F001C1D4F002C1D5F003C1CD
:103D8000D6F004C1D7F005C1D8F013EC12F0D3C0BF
:103D900000F1D4C001F1D5C002F11200FFFF010112
:103DA000826B816B806B00EE4DF00D0EEE6AE806C3
:103DB000FDE1A20EF66E010EF76E000EF86E01EE3A
:103DC0006EF010EE12F00900F5CFEEFFE550E15075
:103DD000FAE1000EF86E0001CFEF17F0FFFFE10EE1
:103DE000926E9388938A9392818294940F0E956E2B
:103DF000040E966E870EC16E100E806E808629ECC2
:103E00001FF08096808429EC1FF08094808229EC3A
:103E10001FF080921200FFFFFFFF0001AD51000173
:103E2000AF03F3CFB1F0F4CFB2F00001AD51000118
:103E3000B003F3500001B2270001AE510001AF03FF
:103E4000F3500001B227B1C0ADF0B2C0AEF0120025
:103E5000FFFFFFFF000E0001A16F320E0001A06FF7
:103E60000DD0190EE5EC1FF0FF0E0001A02500019A
:103E7000A06FFF0E0001A1210001A16F0001A1515F
:103E8000A011D8B41200FFFFECD7FFFFFFFF000E18
:103E90002B1A000E2C1A800E2D1A28C01CF029C0D7
:103EA0001DF02AC01EF02BC01FF02CC020F02DC02A
:103EB00021F076EC15F01CC028F01DC029F01EC0C2
:103EC0002AF01200FFFFFFFF7F0E0001B91500016D
:103ED000B8110001B711D8B409D0000E0001B71B0A
:103EE000000E0001B81B800E0001B91BB7C0B7F06F
:103EF000B8C0B8F0B9C0B9F01200FFFFFFFF000171
:103F0000A16F000E0001A06F3A0E0001A15DD8B0B4
:103F100007D02F0E0001A16503D0010E0001A06F94
:103F2000A0C09FF000019F311200FFFFFFFFD08E65
:103F3000F28EF28CF19EF190F290F286BD86BD84F5
:103F4000BD92BD90F294F194F28AD59CD59AD58613
:103F5000D58ECA82CA80CA841200FFFFFFFF7F0E7F
:103F6000031402100110D8B406D0000E011A000E7E
:103F7000021A800E031A01C001F002C002F003C051
:103F800003F01200FFFFFFFF00019F6F020E00F021
:103F9000E82EFDD700019F2FF9D71200FFFFFFFF8A
:103FA0009FC0A1F0A0C0A2F0A2C0D7FFA1C0D6FFC1
:103FB0001200FFFFFFFF00019F6F190EE82EFED7D2
:103FC00000019F2FFAD71200FFFFFFFF00019F6F34
:103FD000FA0EE82EFED700019F2FFAD71200FFFF3E
:103FE000FFFF01C003F002C004F004C0D7FF03C00C
:103FF000D6FF1200FFFFFFFFD59EF29A1200FFFFCF
:020000040020DA
:08000000FFFFFFFFFFFFFFFF00
:020000040030CA
:0E000000FF02020EFF0181FF0FC00FE00F4054
:00000001FF
